{
  "_format": "hh-sol-artifact-1",
  "contractName": "PassportRegistry",
  "sourceName": "contracts/passport/PassportRegistry.sol",
  "abi": [
    {
      "inputs": [
        {
          "internalType": "address",
          "name": "contractOwner",
          "type": "address"
        }
      ],
      "stateMutability": "nonpayable",
      "type": "constructor"
    },
    {
      "anonymous": false,
      "inputs": [
        {
          "indexed": true,
          "internalType": "address",
          "name": "wallet",
          "type": "address"
        },
        {
          "indexed": false,
          "internalType": "uint256",
          "name": "passportId",
          "type": "uint256"
        }
      ],
      "name": "Activate",
      "type": "event"
    },
    {
      "anonymous": false,
      "inputs": [
        {
          "indexed": true,
          "internalType": "address",
          "name": "wallet",
          "type": "address"
        },
        {
          "indexed": false,
          "internalType": "uint256",
          "name": "passportId",
          "type": "uint256"
        },
        {
          "indexed": false,
          "internalType": "string",
          "name": "source",
          "type": "string"
        }
      ],
      "name": "Create",
      "type": "event"
    },
    {
      "anonymous": false,
      "inputs": [
        {
          "indexed": true,
          "internalType": "address",
          "name": "wallet",
          "type": "address"
        },
        {
          "indexed": false,
          "internalType": "uint256",
          "name": "passportId",
          "type": "uint256"
        }
      ],
      "name": "Deactivate",
      "type": "event"
    },
    {
      "anonymous": false,
      "inputs": [
        {
          "indexed": true,
          "internalType": "address",
          "name": "previousOwner",
          "type": "address"
        },
        {
          "indexed": true,
          "internalType": "address",
          "name": "newOwner",
          "type": "address"
        }
      ],
      "name": "OwnershipTransferred",
      "type": "event"
    },
    {
      "anonymous": false,
      "inputs": [
        {
          "indexed": false,
          "internalType": "bool",
          "name": "sequencial",
          "type": "bool"
        },
        {
          "indexed": false,
          "internalType": "uint256",
          "name": "nextSequencialPassportId",
          "type": "uint256"
        }
      ],
      "name": "PassportGenerationChanged",
      "type": "event"
    },
    {
      "anonymous": false,
      "inputs": [
        {
          "indexed": false,
          "internalType": "address",
          "name": "account",
          "type": "address"
        }
      ],
      "name": "Paused",
      "type": "event"
    },
    {
      "anonymous": false,
      "inputs": [
        {
          "indexed": false,
          "internalType": "uint256",
          "name": "oldPassportId",
          "type": "uint256"
        },
        {
          "indexed": false,
          "internalType": "uint256",
          "name": "newPassportId",
          "type": "uint256"
        },
        {
          "indexed": true,
          "internalType": "address",
          "name": "oldWallet",
          "type": "address"
        },
        {
          "indexed": true,
          "internalType": "address",
          "name": "newWallet",
          "type": "address"
        }
      ],
      "name": "Transfer",
      "type": "event"
    },
    {
      "anonymous": false,
      "inputs": [
        {
          "indexed": false,
          "internalType": "address",
          "name": "account",
          "type": "address"
        }
      ],
      "name": "Unpaused",
      "type": "event"
    },
    {
      "inputs": [
        {
          "internalType": "address",
          "name": "wallet",
          "type": "address"
        }
      ],
      "name": "activate",
      "outputs": [],
      "stateMutability": "nonpayable",
      "type": "function"
    },
    {
      "inputs": [
        {
          "internalType": "string",
          "name": "source",
          "type": "string"
        },
        {
          "internalType": "address",
          "name": "wallet",
          "type": "address"
        },
        {
          "internalType": "uint256",
          "name": "id",
          "type": "uint256"
        }
      ],
      "name": "adminCreate",
      "outputs": [],
      "stateMutability": "nonpayable",
      "type": "function"
    },
    {
      "inputs": [
        {
          "internalType": "address",
          "name": "wallet",
          "type": "address"
        },
        {
          "internalType": "uint256",
          "name": "id",
          "type": "uint256"
        }
      ],
      "name": "adminTransfer",
      "outputs": [],
      "stateMutability": "nonpayable",
      "type": "function"
    },
    {
      "inputs": [
        {
          "internalType": "string",
          "name": "source",
          "type": "string"
        }
      ],
      "name": "create",
      "outputs": [],
      "stateMutability": "nonpayable",
      "type": "function"
    },
    {
      "inputs": [
        {
          "internalType": "address",
          "name": "wallet",
          "type": "address"
        }
      ],
      "name": "deactivate",
      "outputs": [],
      "stateMutability": "nonpayable",
      "type": "function"
    },
    {
      "inputs": [
        {
          "internalType": "uint256",
          "name": "",
          "type": "uint256"
        }
      ],
      "name": "idActive",
      "outputs": [
        {
          "internalType": "bool",
          "name": "",
          "type": "bool"
        }
      ],
      "stateMutability": "view",
      "type": "function"
    },
    {
      "inputs": [
        {
          "internalType": "uint256",
          "name": "",
          "type": "uint256"
        }
      ],
      "name": "idPassport",
      "outputs": [
        {
          "internalType": "address",
          "name": "",
          "type": "address"
        }
      ],
      "stateMutability": "view",
      "type": "function"
    },
    {
      "inputs": [
        {
          "internalType": "uint256",
          "name": "",
          "type": "uint256"
        }
      ],
      "name": "idSource",
      "outputs": [
        {
          "internalType": "string",
          "name": "",
          "type": "string"
        }
      ],
      "stateMutability": "view",
      "type": "function"
    },
    {
      "inputs": [],
      "name": "nextId",
      "outputs": [
        {
          "internalType": "uint256",
          "name": "",
          "type": "uint256"
        }
      ],
      "stateMutability": "view",
      "type": "function"
    },
    {
      "inputs": [],
      "name": "owner",
      "outputs": [
        {
          "internalType": "address",
          "name": "",
          "type": "address"
        }
      ],
      "stateMutability": "view",
      "type": "function"
    },
    {
      "inputs": [
        {
          "internalType": "address",
          "name": "",
          "type": "address"
        }
      ],
      "name": "passportId",
      "outputs": [
        {
          "internalType": "uint256",
          "name": "",
          "type": "uint256"
        }
      ],
      "stateMutability": "view",
      "type": "function"
    },
    {
      "inputs": [],
      "name": "pause",
      "outputs": [],
      "stateMutability": "nonpayable",
      "type": "function"
    },
    {
      "inputs": [],
      "name": "paused",
      "outputs": [
        {
          "internalType": "bool",
          "name": "",
          "type": "bool"
        }
      ],
      "stateMutability": "view",
      "type": "function"
    },
    {
      "inputs": [],
      "name": "renounceOwnership",
      "outputs": [],
      "stateMutability": "nonpayable",
      "type": "function"
    },
    {
      "inputs": [],
      "name": "sequencial",
      "outputs": [
        {
          "internalType": "bool",
          "name": "",
          "type": "bool"
        }
      ],
      "stateMutability": "view",
      "type": "function"
    },
    {
      "inputs": [
        {
          "internalType": "bool",
          "name": "sequencialFlag",
          "type": "bool"
        },
        {
          "internalType": "uint256",
          "name": "nextSequencialPassportId",
          "type": "uint256"
        }
      ],
      "name": "setGenerationMode",
      "outputs": [],
      "stateMutability": "nonpayable",
      "type": "function"
    },
    {
      "inputs": [
        {
          "internalType": "string",
          "name": "",
          "type": "string"
        }
      ],
      "name": "sourcePassports",
      "outputs": [
        {
          "internalType": "uint256",
          "name": "",
          "type": "uint256"
        }
      ],
      "stateMutability": "view",
      "type": "function"
    },
    {
      "inputs": [],
      "name": "totalAdminsCreates",
      "outputs": [
        {
          "internalType": "uint256",
          "name": "_value",
          "type": "uint256"
        }
      ],
      "stateMutability": "view",
      "type": "function"
    },
    {
      "inputs": [],
      "name": "totalCreates",
      "outputs": [
        {
          "internalType": "uint256",
          "name": "_value",
          "type": "uint256"
        }
      ],
      "stateMutability": "view",
      "type": "function"
    },
    {
      "inputs": [],
      "name": "totalPassportTransfers",
      "outputs": [
        {
          "internalType": "uint256",
          "name": "_value",
          "type": "uint256"
        }
      ],
      "stateMutability": "view",
      "type": "function"
    },
    {
      "inputs": [],
      "name": "totalSequencialCreates",
      "outputs": [
        {
          "internalType": "uint256",
          "name": "_value",
          "type": "uint256"
        }
      ],
      "stateMutability": "view",
      "type": "function"
    },
    {
      "inputs": [
        {
          "internalType": "address",
          "name": "newWallet",
          "type": "address"
        }
      ],
      "name": "transfer",
      "outputs": [],
      "stateMutability": "nonpayable",
      "type": "function"
    },
    {
      "inputs": [
        {
          "internalType": "address",
          "name": "newOwner",
          "type": "address"
        }
      ],
      "name": "transferOwnership",
      "outputs": [],
      "stateMutability": "nonpayable",
      "type": "function"
    },
    {
      "inputs": [],
      "name": "unpause",
      "outputs": [],
      "stateMutability": "nonpayable",
      "type": "function"
    },
    {
      "inputs": [
        {
          "internalType": "address",
          "name": "",
          "type": "address"
        }
      ],
      "name": "walletActive",
      "outputs": [
        {
          "internalType": "bool",
          "name": "",
          "type": "bool"
        }
      ],
      "stateMutability": "view",
      "type": "function"
    }
  ],
  "bytecode": "0x60806040523480156200001157600080fd5b506040516200179f3803806200179f833981016040819052620000349162000199565b6200003f3362000068565b6000805460ff60a01b191690556200005781620000b8565b50600c805460ff19169055620001cb565b600080546001600160a01b038381166001600160a01b0319831681178455604051919092169283917f8be0079c531659141344cd1fd0a4f28419497f9722a3daafe3b4186f6b6457e09190a35050565b620000c26200013b565b6001600160a01b0381166200012d5760405162461bcd60e51b815260206004820152602660248201527f4f776e61626c653a206e6577206f776e657220697320746865207a65726f206160448201526564647265737360d01b60648201526084015b60405180910390fd5b620001388162000068565b50565b6000546001600160a01b03163314620001975760405162461bcd60e51b815260206004820181905260248201527f4f776e61626c653a2063616c6c6572206973206e6f7420746865206f776e6572604482015260640162000124565b565b600060208284031215620001ac57600080fd5b81516001600160a01b0381168114620001c457600080fd5b9392505050565b6115c480620001db6000396000f3fe608060405234801561001057600080fd5b50600436106101a35760003560e01c806367d67bb1116100ee578063a5a968d711610097578063e34f95c511610071578063e34f95c514610364578063eaea2e1714610387578063f17e48ec146103a7578063f2fde38b146103ba57600080fd5b8063a5a968d714610334578063b6a46b3b14610347578063cbd9ca031461035a57600080fd5b80638456cb59116100c85780638456cb59146103115780638da5cb5b1461031957806395a7d9eb1461032a57600080fd5b806367d67bb1146102be578063715018a6146102c85780637bdfddd2146102d057600080fd5b80633ea053eb116101505780635ea054c01161012a5780635ea054c01461027857806361b8ce8c146102a357806365c6f69a146102ab57600080fd5b80633ea053eb1461024b5780633f4ba83a1461025e5780635c975abb1461026657600080fd5b80631c5a9d9c116101815780631c5a9d9c1461020d5780631ca8b8ab146102205780633031738a1461024057600080fd5b806302fa5d23146101a857806316d060c4146101e05780631a695230146101f8575b600080fd5b6101cb6101b63660046111b9565b60046020526000908152604090205460ff1681565b60405190151581526020015b60405180910390f35b6009546101ea9081565b6040519081526020016101d7565b61020b6102063660046111ee565b6103cd565b005b61020b61021b3660046111ee565b6104f2565b6101ea61022e3660046111ee565b60016020526000908152604090205481565b600c5460ff166101cb565b61020b6102593660046111ee565b610650565b61020b6107a4565b600054600160a01b900460ff166101cb565b6101ea6102863660046112ac565b805160208183018101805160068252928201919093012091525481565b600b546101ea565b61020b6102b93660046112e9565b6107be565b6007546101ea9081565b61020b610821565b6102f96102de3660046111b9565b6002602052600090815260409020546001600160a01b031681565b6040516001600160a01b0390911681526020016101d7565b61020b610833565b6000546001600160a01b03166102f9565b6008546101ea9081565b61020b61034236600461131a565b61084b565b61020b6103553660046112ac565b61098f565b600a546101ea9081565b6101cb6103723660046111ee565b60036020526000908152604090205460ff1681565b61039a6103953660046111b9565b610a7c565b6040516101d791906113c1565b61020b6103b53660046113d4565b610b16565b61020b6103c83660046111ee565b610df0565b6103d5610e80565b336000908152600160205260408120549081900361043a5760405162461bcd60e51b815260206004820152601760248201527f50617373706f727420646f6573206e6f7420657869737400000000000000000060448201526064015b60405180910390fd5b3360008181526001602090815260408083208390556001600160a01b03861680845281842086905585845260028352818420805473ffffffffffffffffffffffffffffffffffffffff191690911790559282526003905220805460ff191690556104a8600a80546001019055565b60408051828152602081018390526001600160a01b0384169133917f9f65d9ea50ab662b40d515f674de3e49eae2144ce2877d5ff17a4a19905883b8910160405180910390a35050565b6104fa610e80565b610502610eda565b6001600160a01b03811660009081526001602052604081205490036105695760405162461bcd60e51b815260206004820152601360248201527f50617373706f7274206d757374206578697374000000000000000000000000006044820152606401610431565b6001600160a01b03811660009081526003602052604090205460ff16156105d25760405162461bcd60e51b815260206004820152601960248201527f50617373706f7274206d75737420626520696e616374697665000000000000006044820152606401610431565b6001600160a01b03811660008181526001602081815260408084205460038352818520805460ff1990811686179091558186526004845294829020805490951690931790935591518181529092917ffbd0a3f6e9a0dd5f834515748047e83de8064477489a0a0d6b59c64bbecc992a91015b60405180910390a25050565b610658610e80565b610660610eda565b6001600160a01b03811660009081526001602052604081205490036106c75760405162461bcd60e51b815260206004820152601360248201527f50617373706f7274206d757374206578697374000000000000000000000000006044820152606401610431565b6001600160a01b03811660009081526003602052604090205460ff1615156001146107345760405162461bcd60e51b815260206004820152601760248201527f50617373706f7274206d757374206265206163746976650000000000000000006044820152606401610431565b6001600160a01b03811660008181526001602090815260408083205460038352818420805460ff1990811690915581855260048452938290208054909416909355518281529192917f13b865880a841dc469b629159fa1e730fee99568b0decc6737fd688b362463819101610644565b6107ac610f34565b6107b4610eda565b6107bc610f8d565b565b6107c6610e80565b6107ce610eda565b600c805460ff1916831515908117909155600b82905560408051918252602082018390527f3beee7330277f27f323f6359d5d3bd82e9291ac54843740f23b52e9b9c77e0ba910160405180910390a15050565b610829610eda565b6107bc6000610fe2565b61083b610e80565b610843610eda565b6107bc61103f565b610853610e80565b600c5460ff16156108a65760405162461bcd60e51b815260206004820152601a60248201527f53657175656e6369616c2067656e65726174696f6e206d6f64650000000000006044820152606401610431565b6001600160a01b0382166000908152600160205260409020541561090c5760405162461bcd60e51b815260206004820152601760248201527f50617373706f727420616c7265616479206578697374730000000000000000006044820152606401610431565b6000818152600260205260409020546001600160a01b0316156109715760405162461bcd60e51b815260206004820152601a60248201527f50617373706f727420696420616c7265616479206973737565640000000000006044820152606401610431565b61097f600980546001019055565b61098a828285611082565b505050565b610997610e80565b600c5460ff166109e95760405162461bcd60e51b815260206004820152601560248201527f41646d696e2067656e65726174696f6e206d6f646500000000000000000000006044820152606401610431565b3360009081526001602052604090205415610a465760405162461bcd60e51b815260206004820152601760248201527f50617373706f727420616c7265616479206578697374730000000000000000006044820152606401610431565b610a54600880546001019055565b610a6133600b5483611082565b6001600b6000828254610a7491906113f0565b909155505050565b60056020526000908152604090208054610a9590611411565b80601f0160208091040260200160405190810160405280929190818152602001828054610ac190611411565b8015610b0e5780601f10610ae357610100808354040283529160200191610b0e565b820191906000526020600020905b815481529060010190602001808311610af157829003601f168201915b505050505081565b610b1e610eda565b6001600160a01b03808316600090815260016020908152604080832054858452600290925282205490921690829003610bbf5760405162461bcd60e51b815260206004820152603060248201527f57616c6c657420646f6573206e6f74206861766520612070617373706f72742060448201527f746f207472616e736665722066726f6d000000000000000000000000000000006064820152608401610431565b6001600160a01b03811615610c3c5760405162461bcd60e51b815260206004820152602360248201527f4e65772070617373706f727420696420616c7265616479206861732061206f7760448201527f6e657200000000000000000000000000000000000000000000000000000000006064820152608401610431565b60008281526005602052604081208054610c5590611411565b80601f0160208091040260200160405190810160405280929190818152602001828054610c8190611411565b8015610cce5780601f10610ca357610100808354040283529160200191610cce565b820191906000526020600020905b815481529060010190602001808311610cb157829003601f168201915b5050506000878152600560205260409020929350610cf0915083905082611499565b506040805160208082018352600080835286815260059091529190912090610d189082611499565b506001600160a01b038516600081815260016020818152604080842089905587845260028252808420805473ffffffffffffffffffffffffffffffffffffffff1916905593835260038152838320805460ff19908116841790915588845260049091528383208054821690921790915585825291902080549091169055610da3600a80546001019055565b60408051848152602081018690526001600160a01b0387169182917f9f65d9ea50ab662b40d515f674de3e49eae2144ce2877d5ff17a4a19905883b8910160405180910390a35050505050565b610df8610eda565b6001600160a01b038116610e745760405162461bcd60e51b815260206004820152602660248201527f4f776e61626c653a206e6577206f776e657220697320746865207a65726f206160448201527f64647265737300000000000000000000000000000000000000000000000000006064820152608401610431565b610e7d81610fe2565b50565b600054600160a01b900460ff16156107bc5760405162461bcd60e51b815260206004820152601060248201527f5061757361626c653a20706175736564000000000000000000000000000000006044820152606401610431565b6000546001600160a01b031633146107bc5760405162461bcd60e51b815260206004820181905260248201527f4f776e61626c653a2063616c6c6572206973206e6f7420746865206f776e65726044820152606401610431565b600054600160a01b900460ff166107bc5760405162461bcd60e51b815260206004820152601460248201527f5061757361626c653a206e6f74207061757365640000000000000000000000006044820152606401610431565b610f95610f34565b6000805460ff60a01b191690557f5db9ee0a495bf2e6ff9c91a7834c1ba4fdd244a5e8aa4e537bd38aeae4b073aa335b6040516001600160a01b03909116815260200160405180910390a1565b600080546001600160a01b0383811673ffffffffffffffffffffffffffffffffffffffff19831681178455604051919092169283917f8be0079c531659141344cd1fd0a4f28419497f9722a3daafe3b4186f6b6457e09190a35050565b611047610e80565b6000805460ff60a01b1916600160a01b1790557f62e78cea01bee320cd4e420270b5ea74000d11b0c9f74754ebdbfc544b05a258610fc53390565b611090600780546001019055565b6000828152600260209081526040808320805473ffffffffffffffffffffffffffffffffffffffff19166001600160a01b0388169081179091558352600180835281842086905560038352818420805460ff1990811683179091558685526004845282852080549091169091179055600590915290206111108282611499565b5061113a6006826040516111249190611559565b90815260200160405180910390205460016111a4565b60068260405161114a9190611559565b908152602001604051809103902081905550826001600160a01b03167f06acdc615e0b6df2984444b78654ef89855fead2ca37b1d70464c0e7827590e28383604051611197929190611575565b60405180910390a2505050565b60006111b082846113f0565b90505b92915050565b6000602082840312156111cb57600080fd5b5035919050565b80356001600160a01b03811681146111e957600080fd5b919050565b60006020828403121561120057600080fd5b6111b0826111d2565b634e487b7160e01b600052604160045260246000fd5b600082601f83011261123057600080fd5b813567ffffffffffffffff8082111561124b5761124b611209565b604051601f8301601f19908116603f0116810190828211818310171561127357611273611209565b8160405283815286602085880101111561128c57600080fd5b836020870160208301376000602085830101528094505050505092915050565b6000602082840312156112be57600080fd5b813567ffffffffffffffff8111156112d557600080fd5b6112e18482850161121f565b949350505050565b600080604083850312156112fc57600080fd5b8235801515811461130c57600080fd5b946020939093013593505050565b60008060006060848603121561132f57600080fd5b833567ffffffffffffffff81111561134657600080fd5b6113528682870161121f565b935050611361602085016111d2565b9150604084013590509250925092565b60005b8381101561138c578181015183820152602001611374565b50506000910152565b600081518084526113ad816020860160208601611371565b601f01601f19169290920160200192915050565b6020815260006111b06020830184611395565b600080604083850312156113e757600080fd5b61130c836111d2565b808201808211156111b357634e487b7160e01b600052601160045260246000fd5b600181811c9082168061142557607f821691505b60208210810361144557634e487b7160e01b600052602260045260246000fd5b50919050565b601f82111561098a57600081815260208120601f850160051c810160208610156114725750805b601f850160051c820191505b818110156114915782815560010161147e565b505050505050565b815167ffffffffffffffff8111156114b3576114b3611209565b6114c7816114c18454611411565b8461144b565b602080601f8311600181146114fc57600084156114e45750858301515b600019600386901b1c1916600185901b178555611491565b600085815260208120601f198616915b8281101561152b5788860151825594840194600190910190840161150c565b50858210156115495787850151600019600388901b60f8161c191681555b5050505050600190811b01905550565b6000825161156b818460208701611371565b9190910192915050565b8281526040602082015260006112e1604083018461139556fea2646970667358221220e45d61e5a05ff164bf29ccdc89ee537c97e51ee43f311742cb578c0d52c979b064736f6c63430008110033",
  "linkReferences": {},
  "deployedLinkReferences": {}
}