{
  "_format": "hh-sol-artifact-1",
  "contractName": "PassportRegistry",
  "sourceName": "contracts/passport/PassportRegistry.sol",
  "abi": [
    {
      "inputs": [
        {
          "internalType": "address",
          "name": "contractOwner",
          "type": "address"
        }
      ],
      "stateMutability": "nonpayable",
      "type": "constructor"
    },
    {
      "anonymous": false,
      "inputs": [
        {
          "indexed": true,
          "internalType": "address",
          "name": "wallet",
          "type": "address"
        },
        {
          "indexed": false,
          "internalType": "uint256",
          "name": "passportId",
          "type": "uint256"
        }
      ],
      "name": "Activate",
      "type": "event"
    },
    {
      "anonymous": false,
      "inputs": [
        {
          "indexed": true,
          "internalType": "address",
          "name": "wallet",
          "type": "address"
        },
        {
          "indexed": false,
          "internalType": "uint256",
          "name": "passportId",
          "type": "uint256"
        },
        {
          "indexed": false,
          "internalType": "bool",
          "name": "admin",
          "type": "bool"
        },
        {
          "indexed": false,
          "internalType": "string",
          "name": "source",
          "type": "string"
        }
      ],
      "name": "Create",
      "type": "event"
    },
    {
      "anonymous": false,
      "inputs": [
        {
          "indexed": true,
          "internalType": "address",
          "name": "wallet",
          "type": "address"
        },
        {
          "indexed": false,
          "internalType": "uint256",
          "name": "passportId",
          "type": "uint256"
        }
      ],
      "name": "Deactivate",
      "type": "event"
    },
    {
      "anonymous": false,
      "inputs": [
        {
          "indexed": true,
          "internalType": "address",
          "name": "previousOwner",
          "type": "address"
        },
        {
          "indexed": true,
          "internalType": "address",
          "name": "newOwner",
          "type": "address"
        }
      ],
      "name": "OwnershipTransferred",
      "type": "event"
    },
    {
      "inputs": [
        {
          "internalType": "address",
          "name": "wallet",
          "type": "address"
        }
      ],
      "name": "activate",
      "outputs": [],
      "stateMutability": "nonpayable",
      "type": "function"
    },
    {
      "inputs": [
        {
          "internalType": "address",
          "name": "wallet",
          "type": "address"
        },
        {
          "internalType": "string",
          "name": "source",
          "type": "string"
        }
      ],
      "name": "adminCreate",
      "outputs": [],
      "stateMutability": "nonpayable",
      "type": "function"
    },
    {
      "inputs": [
        {
          "internalType": "address",
          "name": "wallet",
          "type": "address"
        },
        {
          "internalType": "uint256",
          "name": "id",
          "type": "uint256"
        },
        {
          "internalType": "string",
          "name": "source",
          "type": "string"
        }
      ],
      "name": "adminCreateWithId",
      "outputs": [],
      "stateMutability": "nonpayable",
      "type": "function"
    },
    {
      "inputs": [
        {
          "internalType": "string",
          "name": "source",
          "type": "string"
        }
      ],
      "name": "create",
      "outputs": [],
      "stateMutability": "nonpayable",
      "type": "function"
    },
    {
      "inputs": [
        {
          "internalType": "address",
          "name": "wallet",
          "type": "address"
        }
      ],
      "name": "deactivate",
      "outputs": [],
      "stateMutability": "nonpayable",
      "type": "function"
    },
    {
      "inputs": [],
      "name": "disable",
      "outputs": [],
      "stateMutability": "nonpayable",
      "type": "function"
    },
    {
      "inputs": [],
      "name": "enable",
      "outputs": [],
      "stateMutability": "nonpayable",
      "type": "function"
    },
    {
      "inputs": [],
      "name": "enabled",
      "outputs": [
        {
          "internalType": "bool",
          "name": "",
          "type": "bool"
        }
      ],
      "stateMutability": "view",
      "type": "function"
    },
    {
      "inputs": [
        {
          "internalType": "uint256",
          "name": "",
          "type": "uint256"
        }
      ],
      "name": "idActive",
      "outputs": [
        {
          "internalType": "bool",
          "name": "",
          "type": "bool"
        }
      ],
      "stateMutability": "view",
      "type": "function"
    },
    {
      "inputs": [
        {
          "internalType": "uint256",
          "name": "",
          "type": "uint256"
        }
      ],
      "name": "idPassport",
      "outputs": [
        {
          "internalType": "address",
          "name": "",
          "type": "address"
        }
      ],
      "stateMutability": "view",
      "type": "function"
    },
    {
      "inputs": [
        {
          "internalType": "uint256",
          "name": "",
          "type": "uint256"
        }
      ],
      "name": "idSource",
      "outputs": [
        {
          "internalType": "string",
          "name": "",
          "type": "string"
        }
      ],
      "stateMutability": "view",
      "type": "function"
    },
    {
      "inputs": [],
      "name": "initialPassportId",
      "outputs": [
        {
          "internalType": "uint256",
          "name": "",
          "type": "uint256"
        }
      ],
      "stateMutability": "view",
      "type": "function"
    },
    {
      "inputs": [],
      "name": "owner",
      "outputs": [
        {
          "internalType": "address",
          "name": "",
          "type": "address"
        }
      ],
      "stateMutability": "view",
      "type": "function"
    },
    {
      "inputs": [
        {
          "internalType": "address",
          "name": "",
          "type": "address"
        }
      ],
      "name": "passportId",
      "outputs": [
        {
          "internalType": "uint256",
          "name": "",
          "type": "uint256"
        }
      ],
      "stateMutability": "view",
      "type": "function"
    },
    {
      "inputs": [],
      "name": "renounceOwnership",
      "outputs": [],
      "stateMutability": "nonpayable",
      "type": "function"
    },
    {
      "inputs": [
        {
          "internalType": "string",
          "name": "",
          "type": "string"
        }
      ],
      "name": "sourcePassports",
      "outputs": [
        {
          "internalType": "uint256",
          "name": "",
          "type": "uint256"
        }
      ],
      "stateMutability": "view",
      "type": "function"
    },
    {
      "inputs": [],
      "name": "totalAdminCreates",
      "outputs": [
        {
          "internalType": "uint256",
          "name": "",
          "type": "uint256"
        }
      ],
      "stateMutability": "view",
      "type": "function"
    },
    {
      "inputs": [],
      "name": "totalCreates",
      "outputs": [
        {
          "internalType": "uint256",
          "name": "",
          "type": "uint256"
        }
      ],
      "stateMutability": "view",
      "type": "function"
    },
    {
      "inputs": [],
      "name": "totalPublicCreates",
      "outputs": [
        {
          "internalType": "uint256",
          "name": "",
          "type": "uint256"
        }
      ],
      "stateMutability": "view",
      "type": "function"
    },
    {
      "inputs": [
        {
          "internalType": "address",
          "name": "newOwner",
          "type": "address"
        }
      ],
      "name": "transferOwnership",
      "outputs": [],
      "stateMutability": "nonpayable",
      "type": "function"
    },
    {
      "inputs": [
        {
          "internalType": "address",
          "name": "",
          "type": "address"
        }
      ],
      "name": "walletActive",
      "outputs": [
        {
          "internalType": "bool",
          "name": "",
          "type": "bool"
        }
      ],
      "stateMutability": "view",
      "type": "function"
    }
  ],
  "bytecode": "0x6080604052600a805460ff191660011790556103e8600b553480156200002457600080fd5b506040516200137338038062001373833981016040819052620000479162000195565b620000523362000064565b6200005d81620000b4565b50620001c7565b600080546001600160a01b038381166001600160a01b0319831681178455604051919092169283917f8be0079c531659141344cd1fd0a4f28419497f9722a3daafe3b4186f6b6457e09190a35050565b620000be62000137565b6001600160a01b038116620001295760405162461bcd60e51b815260206004820152602660248201527f4f776e61626c653a206e6577206f776e657220697320746865207a65726f206160448201526564647265737360d01b60648201526084015b60405180910390fd5b620001348162000064565b50565b6000546001600160a01b03163314620001935760405162461bcd60e51b815260206004820181905260248201527f4f776e61626c653a2063616c6c6572206973206e6f7420746865206f776e6572604482015260640162000120565b565b600060208284031215620001a857600080fd5b81516001600160a01b0381168114620001c057600080fd5b9392505050565b61119c80620001d76000396000f3fe608060405234801561001057600080fd5b50600436106101775760003560e01c8063715018a6116100d8578063a3907d711161008c578063e34f95c511610066578063e34f95c514610309578063eaea2e171461032c578063f2fde38b1461034c57600080fd5b8063a3907d71146102db578063a400d096146102e3578063b6a46b3b146102f657600080fd5b8063875aeaff116100bd578063875aeaff146102ae5780638da5cb5b146102b75780639db4a3a5146102c857600080fd5b8063715018a6146102655780637bdfddd21461026d57600080fd5b8063238dafe01161012f5780633ea053eb116101145780633ea053eb1461021e5780635ea054c01461023157806367d67bb11461025c57600080fd5b8063238dafe0146102095780632f2770db1461021657600080fd5b806314d701611161016057806314d70161146101cb5780631c5a9d9c146101d45780631ca8b8ab146101e957600080fd5b806302fa5d231461017c57806305dcf687146101b4575b600080fd5b61019f61018a366004610d7f565b60046020526000908152604090205460ff1681565b60405190151581526020015b60405180910390f35b6101bd60085481565b6040519081526020016101ab565b6101bd600b5481565b6101e76101e2366004610db4565b61035f565b005b6101bd6101f7366004610db4565b60016020526000908152604090205481565b600a5461019f9060ff1681565b6101e761050c565b6101e761022c366004610db4565b610572565b6101bd61023f366004610e72565b805160208183018101805160068252928201919093012091525481565b6101bd60075481565b6101e7610710565b61029661027b366004610d7f565b6002602052600090815260409020546001600160a01b031681565b6040516001600160a01b0390911681526020016101ab565b6101bd60095481565b6000546001600160a01b0316610296565b6101e76102d6366004610eaf565b610724565b6101e761086b565b6101e76102f1366004610f06565b610882565b6101e7610304366004610e72565b61097b565b61019f610317366004610db4565b60036020526000908152604090205460ff1681565b61033f61033a366004610d7f565b610a62565b6040516101ab9190610fa4565b6101e761035a366004610db4565b610afc565b600a5460ff166103b65760405162461bcd60e51b815260206004820152601960248201527f54686520636f6e74726163742069732064697361626c65642e0000000000000060448201526064015b60405180910390fd5b6103be610b8c565b6001600160a01b03811660009081526001602052604081205490036104255760405162461bcd60e51b815260206004820152601360248201527f50617373706f7274206d7573742065786973740000000000000000000000000060448201526064016103ad565b6001600160a01b03811660009081526003602052604090205460ff161561048e5760405162461bcd60e51b815260206004820152601960248201527f50617373706f7274206d75737420626520696e6163746976650000000000000060448201526064016103ad565b6001600160a01b03811660008181526001602081815260408084205460038352818520805460ff1990811686179091558186526004845294829020805490951690931790935591518181529092917ffbd0a3f6e9a0dd5f834515748047e83de8064477489a0a0d6b59c64bbecc992a91015b60405180910390a25050565b600a5460ff1661055e5760405162461bcd60e51b815260206004820152601960248201527f54686520636f6e74726163742069732064697361626c65642e0000000000000060448201526064016103ad565b610566610b8c565b600a805460ff19169055565b600a5460ff166105c45760405162461bcd60e51b815260206004820152601960248201527f54686520636f6e74726163742069732064697361626c65642e0000000000000060448201526064016103ad565b6105cc610b8c565b6001600160a01b03811660009081526001602052604081205490036106335760405162461bcd60e51b815260206004820152601360248201527f50617373706f7274206d7573742065786973740000000000000000000000000060448201526064016103ad565b6001600160a01b03811660009081526003602052604090205460ff1615156001146106a05760405162461bcd60e51b815260206004820152601760248201527f50617373706f7274206d7573742062652061637469766500000000000000000060448201526064016103ad565b6001600160a01b03811660008181526001602090815260408083205460038352818420805460ff1990811690915581855260048452938290208054909416909355518281529192917f13b865880a841dc469b629159fa1e730fee99568b0decc6737fd688b362463819101610500565b610718610b8c565b6107226000610be6565b565b600a5460ff166107765760405162461bcd60e51b815260206004820152601960248201527f54686520636f6e74726163742069732064697361626c65642e0000000000000060448201526064016103ad565b61077e610b8c565b6001600160a01b038316600090815260016020526040902054156107e45760405162461bcd60e51b815260206004820152601760248201527f50617373706f727420616c72656164792065786973747300000000000000000060448201526064016103ad565b6000828152600260205260409020546001600160a01b0316156108495760405162461bcd60e51b815260206004820152601c60248201527f50617373706f727420696420616c72656164792061737369676e65640000000060448201526064016103ad565b6108566008546001610c43565b6008556108668383600184610c58565b505050565b610873610b8c565b600a805460ff19166001179055565b600a5460ff166108d45760405162461bcd60e51b815260206004820152601960248201527f54686520636f6e74726163742069732064697361626c65642e0000000000000060448201526064016103ad565b6108dc610b8c565b6001600160a01b038216600090815260016020526040902054156109425760405162461bcd60e51b815260206004820152601760248201527f50617373706f727420616c72656164792065786973747300000000000000000060448201526064016103ad565b600061095c600b546109576009546001610c43565b610c43565b905061096b6008546001610c43565b6008556108668382600185610c58565b600a5460ff166109cd5760405162461bcd60e51b815260206004820152601960248201527f54686520636f6e74726163742069732064697361626c65642e0000000000000060448201526064016103ad565b3360009081526001602052604090205415610a2a5760405162461bcd60e51b815260206004820152601760248201527f50617373706f727420616c72656164792065786973747300000000000000000060448201526064016103ad565b6000610a3f600b546109576009546001610c43565b9050610a4e6009546001610c43565b600955610a5e3382600085610c58565b5050565b60056020526000908152604090208054610a7b90610fb7565b80601f0160208091040260200160405190810160405280929190818152602001828054610aa790610fb7565b8015610af45780601f10610ac957610100808354040283529160200191610af4565b820191906000526020600020905b815481529060010190602001808311610ad757829003601f168201915b505050505081565b610b04610b8c565b6001600160a01b038116610b805760405162461bcd60e51b815260206004820152602660248201527f4f776e61626c653a206e6577206f776e657220697320746865207a65726f206160448201527f646472657373000000000000000000000000000000000000000000000000000060648201526084016103ad565b610b8981610be6565b50565b6000546001600160a01b031633146107225760405162461bcd60e51b815260206004820181905260248201527f4f776e61626c653a2063616c6c6572206973206e6f7420746865206f776e657260448201526064016103ad565b600080546001600160a01b0383811673ffffffffffffffffffffffffffffffffffffffff19831681178455604051919092169283917f8be0079c531659141344cd1fd0a4f28419497f9722a3daafe3b4186f6b6457e09190a35050565b6000610c4f8284610ff1565b90505b92915050565b610c656007546001610c43565b6007556000838152600260209081526040808320805473ffffffffffffffffffffffffffffffffffffffff19166001600160a01b0389169081179091558352600180835281842087905560038352818420805460ff199081168317909155878552600484528285208054909116909117905560059091529020610ce88282611060565b50610d12600682604051610cfc9190611120565b9081526020016040518091039020546001610c43565b600682604051610d229190611120565b908152602001604051809103902081905550836001600160a01b03167f42b1c26fe22d414c7f2c2090f3ea7ecb49e7794f115642cab1d1a0057bb777ee848484604051610d719392919061113c565b60405180910390a250505050565b600060208284031215610d9157600080fd5b5035919050565b80356001600160a01b0381168114610daf57600080fd5b919050565b600060208284031215610dc657600080fd5b610c4f82610d98565b634e487b7160e01b600052604160045260246000fd5b600082601f830112610df657600080fd5b813567ffffffffffffffff80821115610e1157610e11610dcf565b604051601f8301601f19908116603f01168101908282118183101715610e3957610e39610dcf565b81604052838152866020858801011115610e5257600080fd5b836020870160208301376000602085830101528094505050505092915050565b600060208284031215610e8457600080fd5b813567ffffffffffffffff811115610e9b57600080fd5b610ea784828501610de5565b949350505050565b600080600060608486031215610ec457600080fd5b610ecd84610d98565b925060208401359150604084013567ffffffffffffffff811115610ef057600080fd5b610efc86828701610de5565b9150509250925092565b60008060408385031215610f1957600080fd5b610f2283610d98565b9150602083013567ffffffffffffffff811115610f3e57600080fd5b610f4a85828601610de5565b9150509250929050565b60005b83811015610f6f578181015183820152602001610f57565b50506000910152565b60008151808452610f90816020860160208601610f54565b601f01601f19169290920160200192915050565b602081526000610c4f6020830184610f78565b600181811c90821680610fcb57607f821691505b602082108103610feb57634e487b7160e01b600052602260045260246000fd5b50919050565b80820180821115610c5257634e487b7160e01b600052601160045260246000fd5b601f82111561086657600081815260208120601f850160051c810160208610156110395750805b601f850160051c820191505b8181101561105857828155600101611045565b505050505050565b815167ffffffffffffffff81111561107a5761107a610dcf565b61108e816110888454610fb7565b84611012565b602080601f8311600181146110c357600084156110ab5750858301515b600019600386901b1c1916600185901b178555611058565b600085815260208120601f198616915b828110156110f2578886015182559484019460019091019084016110d3565b50858210156111105787850151600019600388901b60f8161c191681555b5050505050600190811b01905550565b60008251611132818460208701610f54565b9190910192915050565b838152821515602082015260606040820152600061115d6060830184610f78565b9594505050505056fea2646970667358221220177ec67ce7e00130b70165c3a47f37d65a33070e83ccb1d3ea3e8b608c12640264736f6c63430008110033",
  "linkReferences": {},
  "deployedLinkReferences": {}
}