{
  "_format": "hh-sol-artifact-1",
  "contractName": "TalentNFT",
  "sourceName": "contracts/talent-nft/TalentNFT.sol",
  "abi": [
    {
      "inputs": [
        {
          "internalType": "address",
          "name": "_owner",
          "type": "address"
        },
        {
          "internalType": "string",
          "name": "_ticker",
          "type": "string"
        }
      ],
      "stateMutability": "nonpayable",
      "type": "constructor"
    },
    {
      "anonymous": false,
      "inputs": [
        {
          "indexed": true,
          "internalType": "address",
          "name": "owner",
          "type": "address"
        },
        {
          "indexed": true,
          "internalType": "address",
          "name": "approved",
          "type": "address"
        },
        {
          "indexed": true,
          "internalType": "uint256",
          "name": "tokenId",
          "type": "uint256"
        }
      ],
      "name": "Approval",
      "type": "event"
    },
    {
      "anonymous": false,
      "inputs": [
        {
          "indexed": true,
          "internalType": "address",
          "name": "owner",
          "type": "address"
        },
        {
          "indexed": true,
          "internalType": "address",
          "name": "operator",
          "type": "address"
        },
        {
          "indexed": false,
          "internalType": "bool",
          "name": "approved",
          "type": "bool"
        }
      ],
      "name": "ApprovalForAll",
      "type": "event"
    },
    {
      "anonymous": false,
      "inputs": [
        {
          "indexed": true,
          "internalType": "bytes32",
          "name": "role",
          "type": "bytes32"
        },
        {
          "indexed": true,
          "internalType": "bytes32",
          "name": "previousAdminRole",
          "type": "bytes32"
        },
        {
          "indexed": true,
          "internalType": "bytes32",
          "name": "newAdminRole",
          "type": "bytes32"
        }
      ],
      "name": "RoleAdminChanged",
      "type": "event"
    },
    {
      "anonymous": false,
      "inputs": [
        {
          "indexed": true,
          "internalType": "bytes32",
          "name": "role",
          "type": "bytes32"
        },
        {
          "indexed": true,
          "internalType": "address",
          "name": "account",
          "type": "address"
        },
        {
          "indexed": true,
          "internalType": "address",
          "name": "sender",
          "type": "address"
        }
      ],
      "name": "RoleGranted",
      "type": "event"
    },
    {
      "anonymous": false,
      "inputs": [
        {
          "indexed": true,
          "internalType": "bytes32",
          "name": "role",
          "type": "bytes32"
        },
        {
          "indexed": true,
          "internalType": "address",
          "name": "account",
          "type": "address"
        },
        {
          "indexed": true,
          "internalType": "address",
          "name": "sender",
          "type": "address"
        }
      ],
      "name": "RoleRevoked",
      "type": "event"
    },
    {
      "anonymous": false,
      "inputs": [
        {
          "indexed": true,
          "internalType": "address",
          "name": "from",
          "type": "address"
        },
        {
          "indexed": true,
          "internalType": "address",
          "name": "to",
          "type": "address"
        },
        {
          "indexed": true,
          "internalType": "uint256",
          "name": "tokenId",
          "type": "uint256"
        }
      ],
      "name": "Transfer",
      "type": "event"
    },
    {
      "inputs": [],
      "name": "DEFAULT_ADMIN_ROLE",
      "outputs": [
        {
          "internalType": "bytes32",
          "name": "",
          "type": "bytes32"
        }
      ],
      "stateMutability": "view",
      "type": "function"
    },
    {
      "inputs": [
        {
          "internalType": "address",
          "name": "_newOwner",
          "type": "address"
        }
      ],
      "name": "addOwner",
      "outputs": [],
      "stateMutability": "nonpayable",
      "type": "function"
    },
    {
      "inputs": [
        {
          "internalType": "address",
          "name": "to",
          "type": "address"
        },
        {
          "internalType": "uint256",
          "name": "tokenId",
          "type": "uint256"
        }
      ],
      "name": "approve",
      "outputs": [],
      "stateMutability": "nonpayable",
      "type": "function"
    },
    {
      "inputs": [
        {
          "internalType": "address",
          "name": "owner",
          "type": "address"
        }
      ],
      "name": "balanceOf",
      "outputs": [
        {
          "internalType": "uint256",
          "name": "",
          "type": "uint256"
        }
      ],
      "stateMutability": "view",
      "type": "function"
    },
    {
      "inputs": [
        {
          "internalType": "address",
          "name": "account",
          "type": "address"
        },
        {
          "internalType": "string",
          "name": "code",
          "type": "string"
        }
      ],
      "name": "checkAccountOrCodeTier",
      "outputs": [
        {
          "internalType": "enum TIERS",
          "name": "",
          "type": "uint8"
        }
      ],
      "stateMutability": "view",
      "type": "function"
    },
    {
      "inputs": [
        {
          "internalType": "uint256",
          "name": "tokenId",
          "type": "uint256"
        }
      ],
      "name": "getApproved",
      "outputs": [
        {
          "internalType": "address",
          "name": "",
          "type": "address"
        }
      ],
      "stateMutability": "view",
      "type": "function"
    },
    {
      "inputs": [],
      "name": "getPublicStageFlag",
      "outputs": [
        {
          "internalType": "bool",
          "name": "",
          "type": "bool"
        }
      ],
      "stateMutability": "view",
      "type": "function"
    },
    {
      "inputs": [
        {
          "internalType": "bytes32",
          "name": "role",
          "type": "bytes32"
        }
      ],
      "name": "getRoleAdmin",
      "outputs": [
        {
          "internalType": "bytes32",
          "name": "",
          "type": "bytes32"
        }
      ],
      "stateMutability": "view",
      "type": "function"
    },
    {
      "inputs": [
        {
          "internalType": "bytes32",
          "name": "role",
          "type": "bytes32"
        },
        {
          "internalType": "address",
          "name": "account",
          "type": "address"
        }
      ],
      "name": "grantRole",
      "outputs": [],
      "stateMutability": "nonpayable",
      "type": "function"
    },
    {
      "inputs": [
        {
          "internalType": "bytes32",
          "name": "role",
          "type": "bytes32"
        },
        {
          "internalType": "address",
          "name": "account",
          "type": "address"
        }
      ],
      "name": "hasRole",
      "outputs": [
        {
          "internalType": "bool",
          "name": "",
          "type": "bool"
        }
      ],
      "stateMutability": "view",
      "type": "function"
    },
    {
      "inputs": [
        {
          "internalType": "address",
          "name": "owner",
          "type": "address"
        },
        {
          "internalType": "address",
          "name": "operator",
          "type": "address"
        }
      ],
      "name": "isApprovedForAll",
      "outputs": [
        {
          "internalType": "bool",
          "name": "",
          "type": "bool"
        }
      ],
      "stateMutability": "view",
      "type": "function"
    },
    {
      "inputs": [
        {
          "internalType": "string",
          "name": "combination",
          "type": "string"
        }
      ],
      "name": "isCombinationAvailable",
      "outputs": [
        {
          "internalType": "bool",
          "name": "",
          "type": "bool"
        }
      ],
      "stateMutability": "view",
      "type": "function"
    },
    {
      "inputs": [
        {
          "internalType": "address",
          "name": "account",
          "type": "address"
        },
        {
          "internalType": "string",
          "name": "code",
          "type": "string"
        }
      ],
      "name": "isWhitelisted",
      "outputs": [
        {
          "internalType": "bool",
          "name": "",
          "type": "bool"
        }
      ],
      "stateMutability": "view",
      "type": "function"
    },
    {
      "inputs": [
        {
          "internalType": "string",
          "name": "code",
          "type": "string"
        }
      ],
      "name": "mint",
      "outputs": [],
      "stateMutability": "nonpayable",
      "type": "function"
    },
    {
      "inputs": [],
      "name": "name",
      "outputs": [
        {
          "internalType": "string",
          "name": "",
          "type": "string"
        }
      ],
      "stateMutability": "view",
      "type": "function"
    },
    {
      "inputs": [
        {
          "internalType": "uint256",
          "name": "tokenId",
          "type": "uint256"
        }
      ],
      "name": "ownerOf",
      "outputs": [
        {
          "internalType": "address",
          "name": "",
          "type": "address"
        }
      ],
      "stateMutability": "view",
      "type": "function"
    },
    {
      "inputs": [
        {
          "internalType": "bytes32",
          "name": "role",
          "type": "bytes32"
        },
        {
          "internalType": "address",
          "name": "account",
          "type": "address"
        }
      ],
      "name": "renounceRole",
      "outputs": [],
      "stateMutability": "nonpayable",
      "type": "function"
    },
    {
      "inputs": [
        {
          "internalType": "bytes32",
          "name": "role",
          "type": "bytes32"
        },
        {
          "internalType": "address",
          "name": "account",
          "type": "address"
        }
      ],
      "name": "revokeRole",
      "outputs": [],
      "stateMutability": "nonpayable",
      "type": "function"
    },
    {
      "inputs": [
        {
          "internalType": "address",
          "name": "from",
          "type": "address"
        },
        {
          "internalType": "address",
          "name": "to",
          "type": "address"
        },
        {
          "internalType": "uint256",
          "name": "tokenId",
          "type": "uint256"
        }
      ],
      "name": "safeTransferFrom",
      "outputs": [],
      "stateMutability": "nonpayable",
      "type": "function"
    },
    {
      "inputs": [
        {
          "internalType": "address",
          "name": "from",
          "type": "address"
        },
        {
          "internalType": "address",
          "name": "to",
          "type": "address"
        },
        {
          "internalType": "uint256",
          "name": "tokenId",
          "type": "uint256"
        },
        {
          "internalType": "bytes",
          "name": "data",
          "type": "bytes"
        }
      ],
      "name": "safeTransferFrom",
      "outputs": [],
      "stateMutability": "nonpayable",
      "type": "function"
    },
    {
      "inputs": [
        {
          "internalType": "address",
          "name": "operator",
          "type": "address"
        },
        {
          "internalType": "bool",
          "name": "approved",
          "type": "bool"
        }
      ],
      "name": "setApprovalForAll",
      "outputs": [],
      "stateMutability": "nonpayable",
      "type": "function"
    },
    {
      "inputs": [
        {
          "internalType": "string",
          "name": "baseURI_",
          "type": "string"
        }
      ],
      "name": "setBaseURI",
      "outputs": [],
      "stateMutability": "nonpayable",
      "type": "function"
    },
    {
      "inputs": [
        {
          "internalType": "bool",
          "name": "newFlagValue",
          "type": "bool"
        }
      ],
      "name": "setPublicStageFlag",
      "outputs": [],
      "stateMutability": "nonpayable",
      "type": "function"
    },
    {
      "inputs": [
        {
          "internalType": "uint256",
          "name": "tokenId",
          "type": "uint256"
        },
        {
          "internalType": "string",
          "name": "tokenMetadataURI",
          "type": "string"
        },
        {
          "internalType": "string",
          "name": "combination",
          "type": "string"
        },
        {
          "internalType": "address",
          "name": "owner",
          "type": "address"
        },
        {
          "internalType": "uint256",
          "name": "selectedSkin",
          "type": "uint256"
        }
      ],
      "name": "setTokenURI",
      "outputs": [],
      "stateMutability": "nonpayable",
      "type": "function"
    },
    {
      "inputs": [
        {
          "internalType": "bytes4",
          "name": "interfaceId",
          "type": "bytes4"
        }
      ],
      "name": "supportsInterface",
      "outputs": [
        {
          "internalType": "bool",
          "name": "",
          "type": "bool"
        }
      ],
      "stateMutability": "view",
      "type": "function"
    },
    {
      "inputs": [],
      "name": "symbol",
      "outputs": [
        {
          "internalType": "string",
          "name": "",
          "type": "string"
        }
      ],
      "stateMutability": "view",
      "type": "function"
    },
    {
      "inputs": [
        {
          "internalType": "uint256",
          "name": "index",
          "type": "uint256"
        }
      ],
      "name": "tokenByIndex",
      "outputs": [
        {
          "internalType": "uint256",
          "name": "",
          "type": "uint256"
        }
      ],
      "stateMutability": "view",
      "type": "function"
    },
    {
      "inputs": [
        {
          "internalType": "address",
          "name": "owner",
          "type": "address"
        },
        {
          "internalType": "uint256",
          "name": "index",
          "type": "uint256"
        }
      ],
      "name": "tokenOfOwnerByIndex",
      "outputs": [
        {
          "internalType": "uint256",
          "name": "",
          "type": "uint256"
        }
      ],
      "stateMutability": "view",
      "type": "function"
    },
    {
      "inputs": [
        {
          "internalType": "uint256",
          "name": "tokenId",
          "type": "uint256"
        }
      ],
      "name": "tokenURI",
      "outputs": [
        {
          "internalType": "string",
          "name": "",
          "type": "string"
        }
      ],
      "stateMutability": "view",
      "type": "function"
    },
    {
      "inputs": [],
      "name": "totalSupply",
      "outputs": [
        {
          "internalType": "uint256",
          "name": "",
          "type": "uint256"
        }
      ],
      "stateMutability": "view",
      "type": "function"
    },
    {
      "inputs": [
        {
          "internalType": "address",
          "name": "from",
          "type": "address"
        },
        {
          "internalType": "address",
          "name": "to",
          "type": "address"
        },
        {
          "internalType": "uint256",
          "name": "tokenId",
          "type": "uint256"
        }
      ],
      "name": "transferFrom",
      "outputs": [],
      "stateMutability": "nonpayable",
      "type": "function"
    },
    {
      "inputs": [
        {
          "internalType": "address",
          "name": "_to",
          "type": "address"
        },
        {
          "internalType": "enum TIERS",
          "name": "tier",
          "type": "uint8"
        }
      ],
      "name": "whitelistAddress",
      "outputs": [],
      "stateMutability": "nonpayable",
      "type": "function"
    },
    {
      "inputs": [
        {
          "internalType": "string",
          "name": "code",
          "type": "string"
        },
        {
          "internalType": "enum TIERS",
          "name": "tier",
          "type": "uint8"
        }
      ],
      "name": "whitelistCode",
      "outputs": [],
      "stateMutability": "nonpayable",
      "type": "function"
    }
  ],
  "bytecode": "0x6080604052600f805460ff191690553480156200001b57600080fd5b5060405162002e9338038062002e938339810160408190526200003e916200020f565b60408051808201909152601e8082527f54616c656e742050726f746f636f6c204e465420436f6c6c656374696f6e0000602083019081528391620000859160009162000169565b5080516200009b90600190602084019062000169565b50620000ad91506000905083620000b5565b505062000362565b620000c18282620000c5565b5050565b6000828152600a602090815260408083206001600160a01b038516845290915290205460ff16620000c1576000828152600a602090815260408083206001600160a01b03851684529091529020805460ff19166001179055620001253390565b6001600160a01b0316816001600160a01b0316837f2f8788117e7eff1d82e926ec794901d17c78024a50270940304540a733656f0d60405160405180910390a45050565b82805462000177906200030f565b90600052602060002090601f0160209004810192826200019b5760008555620001e6565b82601f10620001b657805160ff1916838001178555620001e6565b82800160010185558215620001e6579182015b82811115620001e6578251825591602001919060010190620001c9565b50620001f4929150620001f8565b5090565b5b80821115620001f45760008155600101620001f9565b600080604083850312156200022357600080fd5b82516001600160a01b03811681146200023b57600080fd5b602084810151919350906001600160401b03808211156200025b57600080fd5b818601915086601f8301126200027057600080fd5b8151818111156200028557620002856200034c565b604051601f8201601f19908116603f01168101908382118183101715620002b057620002b06200034c565b816040528281528986848701011115620002c957600080fd5b600093505b82841015620002ed5784840186015181850187015292850192620002ce565b82841115620002ff5760008684830101525b8096505050505050509250929050565b600181811c908216806200032457607f821691505b602082108114156200034657634e487b7160e01b600052602260045260246000fd5b50919050565b634e487b7160e01b600052604160045260246000fd5b612b2180620003726000396000f3fe608060405234801561001057600080fd5b506004361061020b5760003560e01c80636352211e1161012a578063a217fddf116100bd578063c1233d611161008c578063d547741f11610071578063d547741f1461049f578063d85d3d27146104b2578063e985e9c5146104c557600080fd5b8063c1233d6114610479578063c87b56dd1461048c57600080fd5b8063a217fddf14610438578063a22cb46514610440578063b430a5d914610453578063b88d4fde1461046657600080fd5b806391d14854116100f957806391d14854146103cc57806395d89b41146104055780639924663c1461040d5780639d0234fe1461042d57600080fd5b80636352211e146103805780636b9a5c6c146103935780637065cb48146103a657806370a08231146103b957600080fd5b80632f745c59116101a257806342842e0e1161017157806342842e0e1461033457806349a3836f146103475780634f6ccce71461035a57806355f804b31461036d57600080fd5b80632f745c59146102e85780632f9c1aaa146102fb57806336568abe1461030e57806339a95a0f1461032157600080fd5b806318160ddd116101de57806318160ddd1461028d57806323b872dd1461029f578063248a9ca3146102b25780632f2ff15d146102d557600080fd5b806301ffc9a71461021057806306fdde0314610238578063081812fc1461024d578063095ea7b314610278575b600080fd5b61022361021e366004612721565b610501565b60405190151581526020015b60405180910390f35b610240610512565b60405161022f9190612988565b61026061025b3660046126e5565b6105a4565b6040516001600160a01b03909116815260200161022f565b61028b6102863660046126a0565b6105cb565b005b6008545b60405190815260200161022f565b61028b6102ad366004612546565b610702565b6102916102c03660046126e5565b6000908152600a602052604090206001015490565b61028b6102e33660046126fe565b610789565b6102916102f63660046126a0565b6107ae565b61028b610309366004612790565b610856565b61028b61031c3660046126fe565b61092c565b61022361032f36600461275b565b6109b8565b61028b610342366004612546565b6109e1565b61028b6103553660046127d5565b6109fc565b6102916103683660046126e5565b610c9d565b61028b61037b36600461275b565b610d41565b61026061038e3660046126e5565b610d5f565b61028b6103a1366004612628565b610dc4565b61028b6103b43660046124f8565b610e8b565b6102916103c73660046124f8565b610ea1565b6102236103da3660046126fe565b6000918252600a602090815260408084206001600160a01b0393909316845291905290205460ff1690565b610240610f3b565b61042061041b366004612652565b610f4a565b60405161022f9190612960565b600f5460ff16610223565b610291600081565b61028b61044e3660046125fe565b611030565b61028b6104613660046126ca565b61103b565b61028b610474366004612582565b6110ff565b610223610487366004612652565b61118d565b61024061049a3660046126e5565b6111c0565b61028b6104ad3660046126fe565b61135b565b61028b6104c036600461275b565b611380565b6102236104d3366004612513565b6001600160a01b03918216600090815260056020908152604080832093909416825291909152205460ff1690565b600061050c8261149d565b92915050565b60606000805461052190612a2c565b80601f016020809104026020016040519081016040528092919081815260200182805461054d90612a2c565b801561059a5780601f1061056f5761010080835404028352916020019161059a565b820191906000526020600020905b81548152906001019060200180831161057d57829003601f168201915b5050505050905090565b60006105af826114db565b506000908152600460205260409020546001600160a01b031690565b60006105d682610d5f565b9050806001600160a01b0316836001600160a01b031614156106655760405162461bcd60e51b815260206004820152602160248201527f4552433732313a20617070726f76616c20746f2063757272656e74206f776e6560448201527f720000000000000000000000000000000000000000000000000000000000000060648201526084015b60405180910390fd5b336001600160a01b0382161480610681575061068181336104d3565b6106f35760405162461bcd60e51b815260206004820152603e60248201527f4552433732313a20617070726f76652063616c6c6572206973206e6f7420746f60448201527f6b656e206f776e6572206e6f7220617070726f76656420666f7220616c6c0000606482015260840161065c565b6106fd8383611542565b505050565b61070c33826115bd565b61077e5760405162461bcd60e51b815260206004820152602e60248201527f4552433732313a2063616c6c6572206973206e6f7420746f6b656e206f776e6560448201527f72206e6f7220617070726f766564000000000000000000000000000000000000606482015260840161065c565b6106fd83838361163c565b6000828152600a60205260409020600101546107a481611821565b6106fd838361182b565b60006107b983610ea1565b821061082d5760405162461bcd60e51b815260206004820152602b60248201527f455243373231456e756d657261626c653a206f776e657220696e646578206f7560448201527f74206f6620626f756e6473000000000000000000000000000000000000000000606482015260840161065c565b506001600160a01b03919091166000908152600660209081526040808320938352929052205490565b600061086181611821565b600182600c81111561087557610875612a7d565b116108e85760405162461bcd60e51b815260206004820152603a60248201527f546865207469657220676976656e206e6565647320746f20626520677265617460448201527f6572207468616e2054494552532e5055424c49435f5354414745000000000000606482015260840161065c565b816011846040516108f99190612887565b908152604051908190036020019020805460ff1916600183600c81111561092257610922612a7d565b0217905550505050565b6001600160a01b03811633146109aa5760405162461bcd60e51b815260206004820152602f60248201527f416363657373436f6e74726f6c3a2063616e206f6e6c792072656e6f756e636560448201527f20726f6c657320666f722073656c660000000000000000000000000000000000606482015260840161065c565b6109b482826118cd565b5050565b6000600e826040516109ca9190612887565b908152604051908190036020019020541592915050565b6106fd838383604051806020016040528060008152506110ff565b6000610a0781611821565b60026001600160a01b03841660009081526010602052604090205460ff16600c811115610a3657610a36612a7d565b610a4190600561299b565b610a4b91906129d2565b821115610ac05760405162461bcd60e51b815260206004820152602c60248201527f53656c656374656420736b696e206973206c6f636b656420666f72207468652060448201527f6163636f756e7420746965720000000000000000000000000000000000000000606482015260840161065c565b6000868152600260205260409020546001600160a01b0316610b4a5760405162461bcd60e51b815260206004820152602f60248201527f4552433732314d657461646174613a2055524920717565727920666f72206e6f60448201527f6e6578697374656e7420746f6b656e0000000000000000000000000000000000606482015260840161065c565b6000868152600d602052604090208054610b6390612a2c565b159050610bd85760405162461bcd60e51b815260206004820152602b60248201527f4d657461646174612077617320616c726561647920646566696e656420666f7260448201527f207468697320746f6b656e000000000000000000000000000000000000000000606482015260840161065c565b610be1846109b8565b610c535760405162461bcd60e51b815260206004820152602360248201527f5468697320636f6d62696e6174696f6e2077617320616c7265616479206d696e60448201527f7465640000000000000000000000000000000000000000000000000000000000606482015260840161065c565b85600e85604051610c649190612887565b9081526040805160209281900383019020929092556000888152600d8252919091208651610c949288019061238e565b50505050505050565b6000610ca860085490565b8210610d1c5760405162461bcd60e51b815260206004820152602c60248201527f455243373231456e756d657261626c653a20676c6f62616c20696e646578206f60448201527f7574206f6620626f756e64730000000000000000000000000000000000000000606482015260840161065c565b60088281548110610d2f57610d2f612aa9565b90600052602060002001549050919050565b6000610d4c81611821565b81516106fd90600c90602085019061238e565b6000818152600260205260408120546001600160a01b03168061050c5760405162461bcd60e51b815260206004820152601860248201527f4552433732313a20696e76616c696420746f6b656e2049440000000000000000604482015260640161065c565b6000610dcf81611821565b600182600c811115610de357610de3612a7d565b11610e565760405162461bcd60e51b815260206004820152603a60248201527f546865207469657220676976656e206e6565647320746f20626520677265617460448201527f6572207468616e2054494552532e5055424c49435f5354414745000000000000606482015260840161065c565b6001600160a01b0383166000908152601060205260409020805483919060ff1916600183600c81111561092257610922612a7d565b6000610e9681611821565b6109b4600083611950565b60006001600160a01b038216610f1f5760405162461bcd60e51b815260206004820152602960248201527f4552433732313a2061646472657373207a65726f206973206e6f74206120766160448201527f6c6964206f776e65720000000000000000000000000000000000000000000000606482015260840161065c565b506001600160a01b031660009081526003602052604090205490565b60606001805461052190612a2c565b600f5460009060ff1615610f605750600161050c565b815115610fd5576000601183604051610f799190612887565b9081526040519081900360200190205460ff16600c811115610f9d57610f9d612a7d565b1415610fab5750600061050c565b601182604051610fbb9190612887565b9081526040519081900360200190205460ff16905061050c565b6001600160a01b03831660009081526010602052604081205460ff16600c81111561100257611002612a7d565b14156110105750600061050c565b50506001600160a01b031660009081526010602052604090205460ff1690565b6109b433838361195a565b600061104681611821565b600f5460ff16151582151514156110eb5760405162461bcd60e51b815260206004820152605c60248201527f556e61626c6520746f206368616e6765205f7075626c69635374616765466c6160448201527f672076616c7565206265636175736520746865206e65772076616c756520697360648201527f207468652073616d65206173207468652063757272656e74206f6e6500000000608482015260a40161065c565b50600f805460ff1916911515919091179055565b61110933836115bd565b61117b5760405162461bcd60e51b815260206004820152602e60248201527f4552433732313a2063616c6c6572206973206e6f7420746f6b656e206f776e6560448201527f72206e6f7220617070726f766564000000000000000000000000000000000000606482015260840161065c565b61118784848484611a29565b50505050565b60008061119a8484610f4a565b600c8111156111ab576111ab612a7d565b11806111b95750600f5460ff165b9392505050565b6000818152600260205260409020546060906001600160a01b031661124d5760405162461bcd60e51b815260206004820152602f60248201527f4552433732314d657461646174613a2055524920717565727920666f72206e6f60448201527f6e6578697374656e7420746f6b656e0000000000000000000000000000000000606482015260840161065c565b6000611257611aa7565b90508051600014156112ab5760405162461bcd60e51b815260206004820152601060248201527f4261736520555249206e6f742073657400000000000000000000000000000000604482015260640161065c565b6000838152600d6020526040812080546112c490612a2c565b80601f01602080910402602001604051908101604052809291908181526020018280546112f090612a2c565b801561133d5780601f106113125761010080835404028352916020019161133d565b820191906000526020600020905b81548152906001019060200180831161132057829003601f168201915b505050505090508051600014611354579392505050565b5092915050565b6000828152600a602052604090206001015461137681611821565b6106fd83836118cd565b61138a338261118d565b6113fc5760405162461bcd60e51b815260206004820152602d60248201527f4d696e74696e67206e6f7420616c6c6f77656420776974682063757272656e7460448201527f2073656e64657220726f6c657300000000000000000000000000000000000000606482015260840161065c565b61140533610ea1565b156114785760405162461bcd60e51b815260206004820152602960248201527f416464726573732068617320616c7265616479206d696e746564206f6e65205460448201527f616c656e74204e46540000000000000000000000000000000000000000000000606482015260840161065c565b611486600b80546001019055565b6000611491600b5490565b90506109b43382611ab6565b60006001600160e01b031982167f7965db0b00000000000000000000000000000000000000000000000000000000148061050c575061050c82611ad0565b6000818152600260205260409020546001600160a01b031661153f5760405162461bcd60e51b815260206004820152601860248201527f4552433732313a20696e76616c696420746f6b656e2049440000000000000000604482015260640161065c565b50565b6000818152600460205260409020805473ffffffffffffffffffffffffffffffffffffffff19166001600160a01b038416908117909155819061158482610d5f565b6001600160a01b03167f8c5be1e5ebec7d5bd14f71427d1e84f3dd0314c0f7b2291e5b200ac8c7c3b92560405160405180910390a45050565b6000806115c983610d5f565b9050806001600160a01b0316846001600160a01b0316148061161057506001600160a01b0380821660009081526005602090815260408083209388168352929052205460ff165b806116345750836001600160a01b0316611629846105a4565b6001600160a01b0316145b949350505050565b826001600160a01b031661164f82610d5f565b6001600160a01b0316146116cb5760405162461bcd60e51b815260206004820152602560248201527f4552433732313a207472616e736665722066726f6d20696e636f72726563742060448201527f6f776e6572000000000000000000000000000000000000000000000000000000606482015260840161065c565b6001600160a01b0382166117465760405162461bcd60e51b8152602060048201526024808201527f4552433732313a207472616e7366657220746f20746865207a65726f2061646460448201527f7265737300000000000000000000000000000000000000000000000000000000606482015260840161065c565b611751838383611b0e565b61175c600082611542565b6001600160a01b03831660009081526003602052604081208054600192906117859084906129d2565b90915550506001600160a01b03821660009081526003602052604081208054600192906117b390849061299b565b9091555050600081815260026020526040808220805473ffffffffffffffffffffffffffffffffffffffff19166001600160a01b0386811691821790925591518493918716917fddf252ad1be2c89b69c2b068fc378daa952ba7f163c4a11628f55a4df523b3ef91a4505050565b61153f8133611b19565b6000828152600a602090815260408083206001600160a01b038516845290915290205460ff166109b4576000828152600a602090815260408083206001600160a01b03851684529091529020805460ff191660011790556118893390565b6001600160a01b0316816001600160a01b0316837f2f8788117e7eff1d82e926ec794901d17c78024a50270940304540a733656f0d60405160405180910390a45050565b6000828152600a602090815260408083206001600160a01b038516845290915290205460ff16156109b4576000828152600a602090815260408083206001600160a01b0385168085529252808320805460ff1916905551339285917ff6391f5c32d9c69d2a47ea670b442974b53935d1edc7fd64eb21e047a839171b9190a45050565b6109b4828261182b565b816001600160a01b0316836001600160a01b031614156119bc5760405162461bcd60e51b815260206004820152601960248201527f4552433732313a20617070726f766520746f2063616c6c657200000000000000604482015260640161065c565b6001600160a01b03838116600081815260056020908152604080832094871680845294825291829020805460ff191686151590811790915591519182527f17307eab39ab6107e8899845ad3d59bd9653f200f220920489ca2b5937696c31910160405180910390a3505050565b611a3484848461163c565b611a4084848484611b99565b6111875760405162461bcd60e51b815260206004820152603260248201527f4552433732313a207472616e7366657220746f206e6f6e20455243373231526560448201527131b2b4bb32b91034b6b83632b6b2b73a32b960711b606482015260840161065c565b6060600c805461052190612a2c565b6109b4828260405180602001604052806000815250611cf1565b60006001600160e01b031982167f780e9d6300000000000000000000000000000000000000000000000000000000148061050c575061050c82611d6f565b6106fd838383611e0a565b6000828152600a602090815260408083206001600160a01b038516845290915290205460ff166109b457611b57816001600160a01b03166014611ec2565b611b62836020611ec2565b604051602001611b739291906128a3565b60408051601f198184030181529082905262461bcd60e51b825261065c91600401612988565b60006001600160a01b0384163b15611ce657604051630a85bd0160e11b81526001600160a01b0385169063150b7a0290611bdd903390899088908890600401612924565b602060405180830381600087803b158015611bf757600080fd5b505af1925050508015611c27575060408051601f3d908101601f19168201909252611c249181019061273e565b60015b611ccc573d808015611c55576040519150601f19603f3d011682016040523d82523d6000602084013e611c5a565b606091505b508051611cc45760405162461bcd60e51b815260206004820152603260248201527f4552433732313a207472616e7366657220746f206e6f6e20455243373231526560448201527131b2b4bb32b91034b6b83632b6b2b73a32b960711b606482015260840161065c565b805181602001fd5b6001600160e01b031916630a85bd0160e11b149050611634565b506001949350505050565b611cfb83836120a3565b611d086000848484611b99565b6106fd5760405162461bcd60e51b815260206004820152603260248201527f4552433732313a207472616e7366657220746f206e6f6e20455243373231526560448201527131b2b4bb32b91034b6b83632b6b2b73a32b960711b606482015260840161065c565b60006001600160e01b031982167f80ac58cd000000000000000000000000000000000000000000000000000000001480611dd257506001600160e01b031982167f5b5e139f00000000000000000000000000000000000000000000000000000000145b8061050c57507f01ffc9a7000000000000000000000000000000000000000000000000000000006001600160e01b031983161461050c565b6001600160a01b038316611e6557611e6081600880546000838152600960205260408120829055600182018355919091527ff3f7a9fe364faab93b216da50a3214154f22a0a2b415b23a84c8169e8b636ee30155565b611e88565b816001600160a01b0316836001600160a01b031614611e8857611e8883826121fe565b6001600160a01b038216611e9f576106fd8161229b565b826001600160a01b0316826001600160a01b0316146106fd576106fd828261234a565b60606000611ed18360026129b3565b611edc90600261299b565b67ffffffffffffffff811115611ef457611ef4612abf565b6040519080825280601f01601f191660200182016040528015611f1e576020820181803683370190505b5090507f300000000000000000000000000000000000000000000000000000000000000081600081518110611f5557611f55612aa9565b60200101906001600160f81b031916908160001a9053507f780000000000000000000000000000000000000000000000000000000000000081600181518110611fa057611fa0612aa9565b60200101906001600160f81b031916908160001a9053506000611fc48460026129b3565b611fcf90600161299b565b90505b6001811115612054577f303132333435363738396162636465660000000000000000000000000000000085600f166010811061201057612010612aa9565b1a60f81b82828151811061202657612026612aa9565b60200101906001600160f81b031916908160001a90535060049490941c9361204d81612a15565b9050611fd2565b5083156111b95760405162461bcd60e51b815260206004820181905260248201527f537472696e67733a20686578206c656e67746820696e73756666696369656e74604482015260640161065c565b6001600160a01b0382166120f95760405162461bcd60e51b815260206004820181905260248201527f4552433732313a206d696e7420746f20746865207a65726f2061646472657373604482015260640161065c565b6000818152600260205260409020546001600160a01b03161561215e5760405162461bcd60e51b815260206004820152601c60248201527f4552433732313a20746f6b656e20616c7265616479206d696e74656400000000604482015260640161065c565b61216a60008383611b0e565b6001600160a01b038216600090815260036020526040812080546001929061219390849061299b565b9091555050600081815260026020526040808220805473ffffffffffffffffffffffffffffffffffffffff19166001600160a01b03861690811790915590518392907fddf252ad1be2c89b69c2b068fc378daa952ba7f163c4a11628f55a4df523b3ef908290a45050565b6000600161220b84610ea1565b61221591906129d2565b600083815260076020526040902054909150808214612268576001600160a01b03841660009081526006602090815260408083208584528252808320548484528184208190558352600790915290208190555b5060009182526007602090815260408084208490556001600160a01b039094168352600681528383209183525290812055565b6008546000906122ad906001906129d2565b600083815260096020526040812054600880549394509092849081106122d5576122d5612aa9565b9060005260206000200154905080600883815481106122f6576122f6612aa9565b600091825260208083209091019290925582815260099091526040808220849055858252812055600880548061232e5761232e612a93565b6001900381819060005260206000200160009055905550505050565b600061235583610ea1565b6001600160a01b039093166000908152600660209081526040808320868452825280832085905593825260079052919091209190915550565b82805461239a90612a2c565b90600052602060002090601f0160209004810192826123bc5760008555612402565b82601f106123d557805160ff1916838001178555612402565b82800160010185558215612402579182015b828111156124025782518255916020019190600101906123e7565b5061240e929150612412565b5090565b5b8082111561240e5760008155600101612413565b600067ffffffffffffffff8084111561244257612442612abf565b604051601f8501601f19908116603f0116810190828211818310171561246a5761246a612abf565b8160405280935085815286868601111561248357600080fd5b858560208301376000602087830101525050509392505050565b80356001600160a01b03811681146124b457600080fd5b919050565b803580151581146124b457600080fd5b8035600d81106124b457600080fd5b600082601f8301126124e957600080fd5b6111b983833560208501612427565b60006020828403121561250a57600080fd5b6111b98261249d565b6000806040838503121561252657600080fd5b61252f8361249d565b915061253d6020840161249d565b90509250929050565b60008060006060848603121561255b57600080fd5b6125648461249d565b92506125726020850161249d565b9150604084013590509250925092565b6000806000806080858703121561259857600080fd5b6125a18561249d565b93506125af6020860161249d565b925060408501359150606085013567ffffffffffffffff8111156125d257600080fd5b8501601f810187136125e357600080fd5b6125f287823560208401612427565b91505092959194509250565b6000806040838503121561261157600080fd5b61261a8361249d565b915061253d602084016124b9565b6000806040838503121561263b57600080fd5b6126448361249d565b915061253d602084016124c9565b6000806040838503121561266557600080fd5b61266e8361249d565b9150602083013567ffffffffffffffff81111561268a57600080fd5b612696858286016124d8565b9150509250929050565b600080604083850312156126b357600080fd5b6126bc8361249d565b946020939093013593505050565b6000602082840312156126dc57600080fd5b6111b9826124b9565b6000602082840312156126f757600080fd5b5035919050565b6000806040838503121561271157600080fd5b8235915061253d6020840161249d565b60006020828403121561273357600080fd5b81356111b981612ad5565b60006020828403121561275057600080fd5b81516111b981612ad5565b60006020828403121561276d57600080fd5b813567ffffffffffffffff81111561278457600080fd5b611634848285016124d8565b600080604083850312156127a357600080fd5b823567ffffffffffffffff8111156127ba57600080fd5b6127c6858286016124d8565b92505061253d602084016124c9565b600080600080600060a086880312156127ed57600080fd5b85359450602086013567ffffffffffffffff8082111561280c57600080fd5b61281889838a016124d8565b9550604088013591508082111561282e57600080fd5b5061283b888289016124d8565b93505061284a6060870161249d565b949793965091946080013592915050565b600081518084526128738160208601602086016129e9565b601f01601f19169290920160200192915050565b600082516128998184602087016129e9565b9190910192915050565b7f416363657373436f6e74726f6c3a206163636f756e74200000000000000000008152600083516128db8160178501602088016129e9565b7f206973206d697373696e6720726f6c652000000000000000000000000000000060179184019182015283516129188160288401602088016129e9565b01602801949350505050565b60006001600160a01b03808716835280861660208401525083604083015260806060830152612956608083018461285b565b9695505050505050565b60208101600d831061298257634e487b7160e01b600052602160045260246000fd5b91905290565b6020815260006111b9602083018461285b565b600082198211156129ae576129ae612a67565b500190565b60008160001904831182151516156129cd576129cd612a67565b500290565b6000828210156129e4576129e4612a67565b500390565b60005b83811015612a045781810151838201526020016129ec565b838111156111875750506000910152565b600081612a2457612a24612a67565b506000190190565b600181811c90821680612a4057607f821691505b60208210811415612a6157634e487b7160e01b600052602260045260246000fd5b50919050565b634e487b7160e01b600052601160045260246000fd5b634e487b7160e01b600052602160045260246000fd5b634e487b7160e01b600052603160045260246000fd5b634e487b7160e01b600052603260045260246000fd5b634e487b7160e01b600052604160045260246000fd5b6001600160e01b03198116811461153f57600080fdfea26469706673582212204074d7998dd92d01a6b848af71a403a8126b91bc02e751a287281000f4e4913764736f6c63430008070033",
  "linkReferences": {},
  "deployedLinkReferences": {}
}