{
  "_format": "hh-sol-artifact-1",
  "contractName": "CommunityUser",
  "sourceName": "contracts/CommunityUser.sol",
  "abi": [
    {
      "inputs": [
        {
          "internalType": "address",
          "name": "_owner",
          "type": "address"
        },
        {
          "internalType": "string",
          "name": "_ticker",
          "type": "string"
        }
      ],
      "stateMutability": "nonpayable",
      "type": "constructor"
    },
    {
      "anonymous": false,
      "inputs": [
        {
          "indexed": true,
          "internalType": "address",
          "name": "owner",
          "type": "address"
        },
        {
          "indexed": true,
          "internalType": "address",
          "name": "approved",
          "type": "address"
        },
        {
          "indexed": true,
          "internalType": "uint256",
          "name": "tokenId",
          "type": "uint256"
        }
      ],
      "name": "Approval",
      "type": "event"
    },
    {
      "anonymous": false,
      "inputs": [
        {
          "indexed": true,
          "internalType": "address",
          "name": "owner",
          "type": "address"
        },
        {
          "indexed": true,
          "internalType": "address",
          "name": "operator",
          "type": "address"
        },
        {
          "indexed": false,
          "internalType": "bool",
          "name": "approved",
          "type": "bool"
        }
      ],
      "name": "ApprovalForAll",
      "type": "event"
    },
    {
      "anonymous": false,
      "inputs": [
        {
          "indexed": true,
          "internalType": "address",
          "name": "previousOwner",
          "type": "address"
        },
        {
          "indexed": true,
          "internalType": "address",
          "name": "newOwner",
          "type": "address"
        }
      ],
      "name": "OwnershipTransferred",
      "type": "event"
    },
    {
      "anonymous": false,
      "inputs": [
        {
          "indexed": true,
          "internalType": "address",
          "name": "from",
          "type": "address"
        },
        {
          "indexed": true,
          "internalType": "address",
          "name": "to",
          "type": "address"
        },
        {
          "indexed": true,
          "internalType": "uint256",
          "name": "tokenId",
          "type": "uint256"
        }
      ],
      "name": "Transfer",
      "type": "event"
    },
    {
      "inputs": [
        {
          "internalType": "address[]",
          "name": "addresses",
          "type": "address[]"
        }
      ],
      "name": "airdrop",
      "outputs": [],
      "stateMutability": "nonpayable",
      "type": "function"
    },
    {
      "inputs": [
        {
          "internalType": "address",
          "name": "to",
          "type": "address"
        },
        {
          "internalType": "uint256",
          "name": "tokenId",
          "type": "uint256"
        }
      ],
      "name": "approve",
      "outputs": [],
      "stateMutability": "nonpayable",
      "type": "function"
    },
    {
      "inputs": [
        {
          "internalType": "address",
          "name": "owner",
          "type": "address"
        }
      ],
      "name": "balanceOf",
      "outputs": [
        {
          "internalType": "uint256",
          "name": "",
          "type": "uint256"
        }
      ],
      "stateMutability": "view",
      "type": "function"
    },
    {
      "inputs": [
        {
          "internalType": "uint256",
          "name": "_id",
          "type": "uint256"
        }
      ],
      "name": "burn",
      "outputs": [],
      "stateMutability": "nonpayable",
      "type": "function"
    },
    {
      "inputs": [
        {
          "internalType": "uint256",
          "name": "tokenId",
          "type": "uint256"
        }
      ],
      "name": "getApproved",
      "outputs": [
        {
          "internalType": "address",
          "name": "",
          "type": "address"
        }
      ],
      "stateMutability": "view",
      "type": "function"
    },
    {
      "inputs": [
        {
          "internalType": "address",
          "name": "owner",
          "type": "address"
        },
        {
          "internalType": "address",
          "name": "operator",
          "type": "address"
        }
      ],
      "name": "isApprovedForAll",
      "outputs": [
        {
          "internalType": "bool",
          "name": "",
          "type": "bool"
        }
      ],
      "stateMutability": "view",
      "type": "function"
    },
    {
      "inputs": [
        {
          "internalType": "address",
          "name": "_to",
          "type": "address"
        }
      ],
      "name": "mint",
      "outputs": [],
      "stateMutability": "nonpayable",
      "type": "function"
    },
    {
      "inputs": [],
      "name": "name",
      "outputs": [
        {
          "internalType": "string",
          "name": "",
          "type": "string"
        }
      ],
      "stateMutability": "view",
      "type": "function"
    },
    {
      "inputs": [],
      "name": "owner",
      "outputs": [
        {
          "internalType": "address",
          "name": "",
          "type": "address"
        }
      ],
      "stateMutability": "view",
      "type": "function"
    },
    {
      "inputs": [
        {
          "internalType": "uint256",
          "name": "tokenId",
          "type": "uint256"
        }
      ],
      "name": "ownerOf",
      "outputs": [
        {
          "internalType": "address",
          "name": "",
          "type": "address"
        }
      ],
      "stateMutability": "view",
      "type": "function"
    },
    {
      "inputs": [],
      "name": "renounceOwnership",
      "outputs": [],
      "stateMutability": "nonpayable",
      "type": "function"
    },
    {
      "inputs": [
        {
          "internalType": "address",
          "name": "from",
          "type": "address"
        },
        {
          "internalType": "address",
          "name": "to",
          "type": "address"
        },
        {
          "internalType": "uint256",
          "name": "tokenId",
          "type": "uint256"
        }
      ],
      "name": "safeTransferFrom",
      "outputs": [],
      "stateMutability": "nonpayable",
      "type": "function"
    },
    {
      "inputs": [
        {
          "internalType": "address",
          "name": "from",
          "type": "address"
        },
        {
          "internalType": "address",
          "name": "to",
          "type": "address"
        },
        {
          "internalType": "uint256",
          "name": "tokenId",
          "type": "uint256"
        },
        {
          "internalType": "bytes",
          "name": "data",
          "type": "bytes"
        }
      ],
      "name": "safeTransferFrom",
      "outputs": [],
      "stateMutability": "nonpayable",
      "type": "function"
    },
    {
      "inputs": [
        {
          "internalType": "address",
          "name": "operator",
          "type": "address"
        },
        {
          "internalType": "bool",
          "name": "approved",
          "type": "bool"
        }
      ],
      "name": "setApprovalForAll",
      "outputs": [],
      "stateMutability": "nonpayable",
      "type": "function"
    },
    {
      "inputs": [
        {
          "internalType": "string",
          "name": "baseURI_",
          "type": "string"
        }
      ],
      "name": "setBaseURI",
      "outputs": [],
      "stateMutability": "nonpayable",
      "type": "function"
    },
    {
      "inputs": [
        {
          "internalType": "bytes4",
          "name": "interfaceId",
          "type": "bytes4"
        }
      ],
      "name": "supportsInterface",
      "outputs": [
        {
          "internalType": "bool",
          "name": "",
          "type": "bool"
        }
      ],
      "stateMutability": "view",
      "type": "function"
    },
    {
      "inputs": [],
      "name": "symbol",
      "outputs": [
        {
          "internalType": "string",
          "name": "",
          "type": "string"
        }
      ],
      "stateMutability": "view",
      "type": "function"
    },
    {
      "inputs": [
        {
          "internalType": "uint256",
          "name": "index",
          "type": "uint256"
        }
      ],
      "name": "tokenByIndex",
      "outputs": [
        {
          "internalType": "uint256",
          "name": "",
          "type": "uint256"
        }
      ],
      "stateMutability": "view",
      "type": "function"
    },
    {
      "inputs": [
        {
          "internalType": "address",
          "name": "owner",
          "type": "address"
        },
        {
          "internalType": "uint256",
          "name": "index",
          "type": "uint256"
        }
      ],
      "name": "tokenOfOwnerByIndex",
      "outputs": [
        {
          "internalType": "uint256",
          "name": "",
          "type": "uint256"
        }
      ],
      "stateMutability": "view",
      "type": "function"
    },
    {
      "inputs": [
        {
          "internalType": "uint256",
          "name": "tokenId",
          "type": "uint256"
        }
      ],
      "name": "tokenURI",
      "outputs": [
        {
          "internalType": "string",
          "name": "",
          "type": "string"
        }
      ],
      "stateMutability": "view",
      "type": "function"
    },
    {
      "inputs": [],
      "name": "totalSupply",
      "outputs": [
        {
          "internalType": "uint256",
          "name": "",
          "type": "uint256"
        }
      ],
      "stateMutability": "view",
      "type": "function"
    },
    {
      "inputs": [
        {
          "internalType": "address",
          "name": "from",
          "type": "address"
        },
        {
          "internalType": "address",
          "name": "to",
          "type": "address"
        },
        {
          "internalType": "uint256",
          "name": "tokenId",
          "type": "uint256"
        }
      ],
      "name": "transferFrom",
      "outputs": [],
      "stateMutability": "nonpayable",
      "type": "function"
    },
    {
      "inputs": [
        {
          "internalType": "address",
          "name": "newOwner",
          "type": "address"
        }
      ],
      "name": "transferOwnership",
      "outputs": [],
      "stateMutability": "nonpayable",
      "type": "function"
    }
  ],
  "bytecode": "0x60806040523480156200001157600080fd5b5060405162001f9038038062001f908339810160408190526200003491620001b2565b60408051808201909152601e8082527f54616c656e742050726f746f636f6c20436f6d6d756e697479205573657200006020830190815283916200007b916000916200010c565b508051620000919060019060208401906200010c565b505050620000ae620000a8620000b660201b60201c565b620000ba565b505062000305565b3390565b600a80546001600160a01b038381166001600160a01b0319831681179093556040519116919082907f8be0079c531659141344cd1fd0a4f28419497f9722a3daafe3b4186f6b6457e090600090a35050565b8280546200011a90620002b2565b90600052602060002090601f0160209004810192826200013e576000855562000189565b82601f106200015957805160ff191683800117855562000189565b8280016001018555821562000189579182015b82811115620001895782518255916020019190600101906200016c565b50620001979291506200019b565b5090565b5b808211156200019757600081556001016200019c565b60008060408385031215620001c657600080fd5b82516001600160a01b0381168114620001de57600080fd5b602084810151919350906001600160401b0380821115620001fe57600080fd5b818601915086601f8301126200021357600080fd5b815181811115620002285762000228620002ef565b604051601f8201601f19908116603f01168101908382118183101715620002535762000253620002ef565b8160405282815289868487010111156200026c57600080fd5b600093505b8284101562000290578484018601518185018701529285019262000271565b82841115620002a25760008684830101525b8096505050505050509250929050565b600181811c90821680620002c757607f821691505b60208210811415620002e957634e487b7160e01b600052602260045260246000fd5b50919050565b634e487b7160e01b600052604160045260246000fd5b611c7b80620003156000396000f3fe608060405234801561001057600080fd5b506004361061018d5760003560e01c80636352211e116100e357806395d89b411161008c578063c87b56dd11610066578063c87b56dd14610321578063e985e9c514610334578063f2fde38b1461037057600080fd5b806395d89b41146102f8578063a22cb46514610300578063b88d4fde1461031357600080fd5b8063715018a6116100bd578063715018a6146102cc578063729ad39e146102d45780638da5cb5b146102e757600080fd5b80636352211e146102935780636a627842146102a657806370a08231146102b957600080fd5b806323b872dd1161014557806342966c681161011f57806342966c681461025a5780634f6ccce71461026d57806355f804b31461028057600080fd5b806323b872dd146102215780632f745c591461023457806342842e0e1461024757600080fd5b8063081812fc11610176578063081812fc146101cf578063095ea7b3146101fa57806318160ddd1461020f57600080fd5b806301ffc9a71461019257806306fdde03146101ba575b600080fd5b6101a56101a03660046119e9565b610383565b60405190151581526020015b60405180910390f35b6101c2610394565b6040516101b19190611b0e565b6101e26101dd366004611a6c565b610426565b6040516001600160a01b0390911681526020016101b1565b61020d61020836600461190b565b6104d1565b005b6008545b6040519081526020016101b1565b61020d61022f366004611817565b610603565b61021361024236600461190b565b610671565b61020d610255366004611817565b610719565b61020d610268366004611a6c565b610734565b61021361027b366004611a6c565b61079a565b61020d61028e366004611a23565b61083e565b6101e26102a1366004611a6c565b6108af565b61020d6102b43660046117c2565b61093a565b6102136102c73660046117c2565b6109b9565b61020d610a53565b61020d6102e2366004611935565b610ab9565b600a546001600160a01b03166101e2565b6101c2610bec565b61020d61030e3660046118cf565b610bfb565b61020d61022f366004611853565b6101c261032f366004611a6c565b610cc0565b6101a56103423660046117e4565b6001600160a01b03918216600090815260056020908152604080832093909416825291909152205460ff1690565b61020d61037e3660046117c2565b610dab565b600061038e82610e8a565b92915050565b6060600080546103a390611b81565b80601f01602080910402602001604051908101604052809291908181526020018280546103cf90611b81565b801561041c5780601f106103f15761010080835404028352916020019161041c565b820191906000526020600020905b8154815290600101906020018083116103ff57829003601f168201915b5050505050905090565b6000818152600260205260408120546001600160a01b03166104b55760405162461bcd60e51b815260206004820152602c60248201527f4552433732313a20617070726f76656420717565727920666f72206e6f6e657860448201527f697374656e7420746f6b656e000000000000000000000000000000000000000060648201526084015b60405180910390fd5b506000908152600460205260409020546001600160a01b031690565b60006104dc826108af565b9050806001600160a01b0316836001600160a01b031614156105665760405162461bcd60e51b815260206004820152602160248201527f4552433732313a20617070726f76616c20746f2063757272656e74206f776e6560448201527f720000000000000000000000000000000000000000000000000000000000000060648201526084016104ac565b336001600160a01b038216148061058257506105828133610342565b6105f45760405162461bcd60e51b815260206004820152603860248201527f4552433732313a20617070726f76652063616c6c6572206973206e6f74206f7760448201527f6e6572206e6f7220617070726f76656420666f7220616c6c000000000000000060648201526084016104ac565b6105fe8383610ec8565b505050565b60405162461bcd60e51b815260206004820152602660248201527f436f6d6d756e6974792075736572204e4654206973206e6f6e2d7472616e736660448201527f657261626c65000000000000000000000000000000000000000000000000000060648201526084016104ac565b600061067c836109b9565b82106106f05760405162461bcd60e51b815260206004820152602b60248201527f455243373231456e756d657261626c653a206f776e657220696e646578206f7560448201527f74206f6620626f756e647300000000000000000000000000000000000000000060648201526084016104ac565b506001600160a01b03919091166000908152600660209081526040808320938352929052205490565b6105fe83838360405180602001604052806000815250610603565b600a546001600160a01b0316331461078e5760405162461bcd60e51b815260206004820181905260248201527f4f776e61626c653a2063616c6c6572206973206e6f7420746865206f776e657260448201526064016104ac565b61079781610f43565b50565b60006107a560085490565b82106108195760405162461bcd60e51b815260206004820152602c60248201527f455243373231456e756d657261626c653a20676c6f62616c20696e646578206f60448201527f7574206f6620626f756e6473000000000000000000000000000000000000000060648201526084016104ac565b6008828154811061082c5761082c611c03565b90600052602060002001549050919050565b600a546001600160a01b031633146108985760405162461bcd60e51b815260206004820181905260248201527f4f776e61626c653a2063616c6c6572206973206e6f7420746865206f776e657260448201526064016104ac565b80516108ab90600c9060208401906116b5565b5050565b6000818152600260205260408120546001600160a01b03168061038e5760405162461bcd60e51b815260206004820152602960248201527f4552433732313a206f776e657220717565727920666f72206e6f6e657869737460448201527f656e7420746f6b656e000000000000000000000000000000000000000000000060648201526084016104ac565b600a546001600160a01b031633146109945760405162461bcd60e51b815260206004820181905260248201527f4f776e61626c653a2063616c6c6572206973206e6f7420746865206f776e657260448201526064016104ac565b6109a2600b80546001019055565b60006109ad600b5490565b90506108ab8282610ff7565b60006001600160a01b038216610a375760405162461bcd60e51b815260206004820152602a60248201527f4552433732313a2062616c616e636520717565727920666f7220746865207a6560448201527f726f20616464726573730000000000000000000000000000000000000000000060648201526084016104ac565b506001600160a01b031660009081526003602052604090205490565b600a546001600160a01b03163314610aad5760405162461bcd60e51b815260206004820181905260248201527f4f776e61626c653a2063616c6c6572206973206e6f7420746865206f776e657260448201526064016104ac565b610ab76000611011565b565b600a546001600160a01b03163314610b135760405162461bcd60e51b815260206004820181905260248201527f4f776e61626c653a2063616c6c6572206973206e6f7420746865206f776e657260448201526064016104ac565b60005b81518110156108ab5760006001600160a01b0316828281518110610b3c57610b3c611c03565b60200260200101516001600160a01b03161415610b9b5760405162461bcd60e51b815260206004820152601a60248201527f43616e27742061646420746865206e756c6c206164647265737300000000000060448201526064016104ac565b610ba9600b80546001019055565b6000610bb4600b5490565b9050610bd9838381518110610bcb57610bcb611c03565b602002602001015182610ff7565b5080610be481611bbc565b915050610b16565b6060600180546103a390611b81565b6001600160a01b038216331415610c545760405162461bcd60e51b815260206004820152601960248201527f4552433732313a20617070726f766520746f2063616c6c65720000000000000060448201526064016104ac565b3360008181526005602090815260408083206001600160a01b03871680855290835292819020805460ff191686151590811790915590519081529192917f17307eab39ab6107e8899845ad3d59bd9653f200f220920489ca2b5937696c31910160405180910390a35050565b6000818152600260205260409020546060906001600160a01b0316610d4d5760405162461bcd60e51b815260206004820152602f60248201527f4552433732314d657461646174613a2055524920717565727920666f72206e6f60448201527f6e6578697374656e7420746f6b656e000000000000000000000000000000000060648201526084016104ac565b6000610d57611070565b905080516000141561038e5760405162461bcd60e51b815260206004820152601060248201527f4261736520555249206e6f74207365740000000000000000000000000000000060448201526064016104ac565b600a546001600160a01b03163314610e055760405162461bcd60e51b815260206004820181905260248201527f4f776e61626c653a2063616c6c6572206973206e6f7420746865206f776e657260448201526064016104ac565b6001600160a01b038116610e815760405162461bcd60e51b815260206004820152602660248201527f4f776e61626c653a206e6577206f776e657220697320746865207a65726f206160448201527f646472657373000000000000000000000000000000000000000000000000000060648201526084016104ac565b61079781611011565b60006001600160e01b031982167f780e9d6300000000000000000000000000000000000000000000000000000000148061038e575061038e8261107f565b6000818152600460205260409020805473ffffffffffffffffffffffffffffffffffffffff19166001600160a01b0384169081179091558190610f0a826108af565b6001600160a01b03167f8c5be1e5ebec7d5bd14f71427d1e84f3dd0314c0f7b2291e5b200ac8c7c3b92560405160405180910390a45050565b6000610f4e826108af565b9050610f5c8160008461111a565b610f67600083610ec8565b6001600160a01b0381166000908152600360205260408120805460019290610f90908490611b6a565b9091555050600082815260026020526040808220805473ffffffffffffffffffffffffffffffffffffffff19169055518391906001600160a01b038416907fddf252ad1be2c89b69c2b068fc378daa952ba7f163c4a11628f55a4df523b3ef908390a45050565b6108ab828260405180602001604052806000815250611125565b600a80546001600160a01b0383811673ffffffffffffffffffffffffffffffffffffffff19831681179093556040519116919082907f8be0079c531659141344cd1fd0a4f28419497f9722a3daafe3b4186f6b6457e090600090a35050565b6060600c80546103a390611b81565b60006001600160e01b031982167f80ac58cd0000000000000000000000000000000000000000000000000000000014806110e257506001600160e01b031982167f5b5e139f00000000000000000000000000000000000000000000000000000000145b8061038e57507f01ffc9a7000000000000000000000000000000000000000000000000000000006001600160e01b031983161461038e565b6105fe8383836111ae565b61112f8383611266565b61113c60008484846113c1565b6105fe5760405162461bcd60e51b815260206004820152603260248201527f4552433732313a207472616e7366657220746f206e6f6e20455243373231526560448201527f63656976657220696d706c656d656e746572000000000000000000000000000060648201526084016104ac565b6001600160a01b0383166112095761120481600880546000838152600960205260408120829055600182018355919091527ff3f7a9fe364faab93b216da50a3214154f22a0a2b415b23a84c8169e8b636ee30155565b61122c565b816001600160a01b0316836001600160a01b03161461122c5761122c8382611525565b6001600160a01b038216611243576105fe816115c2565b826001600160a01b0316826001600160a01b0316146105fe576105fe8282611671565b6001600160a01b0382166112bc5760405162461bcd60e51b815260206004820181905260248201527f4552433732313a206d696e7420746f20746865207a65726f206164647265737360448201526064016104ac565b6000818152600260205260409020546001600160a01b0316156113215760405162461bcd60e51b815260206004820152601c60248201527f4552433732313a20746f6b656e20616c7265616479206d696e7465640000000060448201526064016104ac565b61132d6000838361111a565b6001600160a01b0382166000908152600360205260408120805460019290611356908490611b52565b9091555050600081815260026020526040808220805473ffffffffffffffffffffffffffffffffffffffff19166001600160a01b03861690811790915590518392907fddf252ad1be2c89b69c2b068fc378daa952ba7f163c4a11628f55a4df523b3ef908290a45050565b60006001600160a01b0384163b1561151957604051630a85bd0160e11b81526001600160a01b0385169063150b7a0290611405903390899088908890600401611ad2565b602060405180830381600087803b15801561141f57600080fd5b505af192505050801561144f575060408051601f3d908101601f1916820190925261144c91810190611a06565b60015b6114ff573d80801561147d576040519150601f19603f3d011682016040523d82523d6000602084013e611482565b606091505b5080516114f75760405162461bcd60e51b815260206004820152603260248201527f4552433732313a207472616e7366657220746f206e6f6e20455243373231526560448201527f63656976657220696d706c656d656e746572000000000000000000000000000060648201526084016104ac565b805181602001fd5b6001600160e01b031916630a85bd0160e11b14905061151d565b5060015b949350505050565b60006001611532846109b9565b61153c9190611b6a565b60008381526007602052604090205490915080821461158f576001600160a01b03841660009081526006602090815260408083208584528252808320548484528184208190558352600790915290208190555b5060009182526007602090815260408084208490556001600160a01b039094168352600681528383209183525290812055565b6008546000906115d490600190611b6a565b600083815260096020526040812054600880549394509092849081106115fc576115fc611c03565b90600052602060002001549050806008838154811061161d5761161d611c03565b600091825260208083209091019290925582815260099091526040808220849055858252812055600880548061165557611655611bed565b6001900381819060005260206000200160009055905550505050565b600061167c836109b9565b6001600160a01b039093166000908152600660209081526040808320868452825280832085905593825260079052919091209190915550565b8280546116c190611b81565b90600052602060002090601f0160209004810192826116e35760008555611729565b82601f106116fc57805160ff1916838001178555611729565b82800160010185558215611729579182015b8281111561172957825182559160200191906001019061170e565b50611735929150611739565b5090565b5b80821115611735576000815560010161173a565b600067ffffffffffffffff83111561176857611768611c19565b61177b601f8401601f1916602001611b21565b905082815283838301111561178f57600080fd5b828260208301376000602084830101529392505050565b80356001600160a01b03811681146117bd57600080fd5b919050565b6000602082840312156117d457600080fd5b6117dd826117a6565b9392505050565b600080604083850312156117f757600080fd5b611800836117a6565b915061180e602084016117a6565b90509250929050565b60008060006060848603121561182c57600080fd5b611835846117a6565b9250611843602085016117a6565b9150604084013590509250925092565b6000806000806080858703121561186957600080fd5b611872856117a6565b9350611880602086016117a6565b925060408501359150606085013567ffffffffffffffff8111156118a357600080fd5b8501601f810187136118b457600080fd5b6118c38782356020840161174e565b91505092959194509250565b600080604083850312156118e257600080fd5b6118eb836117a6565b91506020830135801515811461190057600080fd5b809150509250929050565b6000806040838503121561191e57600080fd5b611927836117a6565b946020939093013593505050565b6000602080838503121561194857600080fd5b823567ffffffffffffffff8082111561196057600080fd5b818501915085601f83011261197457600080fd5b81358181111561198657611986611c19565b8060051b9150611997848301611b21565b8181528481019084860184860187018a10156119b257600080fd5b600095505b838610156119dc576119c8816117a6565b8352600195909501949186019186016119b7565b5098975050505050505050565b6000602082840312156119fb57600080fd5b81356117dd81611c2f565b600060208284031215611a1857600080fd5b81516117dd81611c2f565b600060208284031215611a3557600080fd5b813567ffffffffffffffff811115611a4c57600080fd5b8201601f81018413611a5d57600080fd5b61151d8482356020840161174e565b600060208284031215611a7e57600080fd5b5035919050565b6000815180845260005b81811015611aab57602081850181015186830182015201611a8f565b81811115611abd576000602083870101525b50601f01601f19169290920160200192915050565b60006001600160a01b03808716835280861660208401525083604083015260806060830152611b046080830184611a85565b9695505050505050565b6020815260006117dd6020830184611a85565b604051601f8201601f1916810167ffffffffffffffff81118282101715611b4a57611b4a611c19565b604052919050565b60008219821115611b6557611b65611bd7565b500190565b600082821015611b7c57611b7c611bd7565b500390565b600181811c90821680611b9557607f821691505b60208210811415611bb657634e487b7160e01b600052602260045260246000fd5b50919050565b6000600019821415611bd057611bd0611bd7565b5060010190565b634e487b7160e01b600052601160045260246000fd5b634e487b7160e01b600052603160045260246000fd5b634e487b7160e01b600052603260045260246000fd5b634e487b7160e01b600052604160045260246000fd5b6001600160e01b03198116811461079757600080fdfea2646970667358221220291392d2f1621113faee69ab35c3f143d99eb31c6aab7b67b5ccc16d5abc24bd64736f6c63430008070033",
  "linkReferences": {},
  "deployedLinkReferences": {}
}