{
  "_format": "hh-sol-artifact-1",
  "contractName": "VirtualTAL",
  "sourceName": "contracts/season3/VirtualTAL.sol",
  "abi": [
    {
      "anonymous": false,
      "inputs": [
        {
          "indexed": false,
          "internalType": "address",
          "name": "owner",
          "type": "address"
        },
        {
          "indexed": false,
          "internalType": "uint256",
          "name": "amount",
          "type": "uint256"
        }
      ],
      "name": "AdminBurned",
      "type": "event"
    },
    {
      "anonymous": false,
      "inputs": [
        {
          "indexed": false,
          "internalType": "address",
          "name": "previousAdmin",
          "type": "address"
        },
        {
          "indexed": false,
          "internalType": "address",
          "name": "newAdmin",
          "type": "address"
        }
      ],
      "name": "AdminChanged",
      "type": "event"
    },
    {
      "anonymous": false,
      "inputs": [
        {
          "indexed": false,
          "internalType": "address",
          "name": "owner",
          "type": "address"
        },
        {
          "indexed": false,
          "internalType": "uint256",
          "name": "amount",
          "type": "uint256"
        },
        {
          "indexed": false,
          "internalType": "enum IVirtualTAL.MintReason",
          "name": "reason",
          "type": "uint8"
        }
      ],
      "name": "AdminMinted",
      "type": "event"
    },
    {
      "anonymous": false,
      "inputs": [
        {
          "indexed": true,
          "internalType": "address",
          "name": "owner",
          "type": "address"
        },
        {
          "indexed": true,
          "internalType": "address",
          "name": "spender",
          "type": "address"
        },
        {
          "indexed": false,
          "internalType": "uint256",
          "name": "value",
          "type": "uint256"
        }
      ],
      "name": "Approval",
      "type": "event"
    },
    {
      "anonymous": false,
      "inputs": [
        {
          "indexed": true,
          "internalType": "address",
          "name": "beacon",
          "type": "address"
        }
      ],
      "name": "BeaconUpgraded",
      "type": "event"
    },
    {
      "anonymous": false,
      "inputs": [
        {
          "indexed": false,
          "internalType": "uint8",
          "name": "version",
          "type": "uint8"
        }
      ],
      "name": "Initialized",
      "type": "event"
    },
    {
      "anonymous": false,
      "inputs": [
        {
          "indexed": true,
          "internalType": "bytes32",
          "name": "role",
          "type": "bytes32"
        },
        {
          "indexed": true,
          "internalType": "bytes32",
          "name": "previousAdminRole",
          "type": "bytes32"
        },
        {
          "indexed": true,
          "internalType": "bytes32",
          "name": "newAdminRole",
          "type": "bytes32"
        }
      ],
      "name": "RoleAdminChanged",
      "type": "event"
    },
    {
      "anonymous": false,
      "inputs": [
        {
          "indexed": true,
          "internalType": "bytes32",
          "name": "role",
          "type": "bytes32"
        },
        {
          "indexed": true,
          "internalType": "address",
          "name": "account",
          "type": "address"
        },
        {
          "indexed": true,
          "internalType": "address",
          "name": "sender",
          "type": "address"
        }
      ],
      "name": "RoleGranted",
      "type": "event"
    },
    {
      "anonymous": false,
      "inputs": [
        {
          "indexed": true,
          "internalType": "bytes32",
          "name": "role",
          "type": "bytes32"
        },
        {
          "indexed": true,
          "internalType": "address",
          "name": "account",
          "type": "address"
        },
        {
          "indexed": true,
          "internalType": "address",
          "name": "sender",
          "type": "address"
        }
      ],
      "name": "RoleRevoked",
      "type": "event"
    },
    {
      "anonymous": false,
      "inputs": [
        {
          "indexed": true,
          "internalType": "address",
          "name": "from",
          "type": "address"
        },
        {
          "indexed": true,
          "internalType": "address",
          "name": "to",
          "type": "address"
        },
        {
          "indexed": false,
          "internalType": "uint256",
          "name": "value",
          "type": "uint256"
        }
      ],
      "name": "Transfer",
      "type": "event"
    },
    {
      "anonymous": false,
      "inputs": [
        {
          "indexed": true,
          "internalType": "address",
          "name": "implementation",
          "type": "address"
        }
      ],
      "name": "Upgraded",
      "type": "event"
    },
    {
      "inputs": [],
      "name": "DEFAULT_ADMIN_ROLE",
      "outputs": [
        {
          "internalType": "bytes32",
          "name": "",
          "type": "bytes32"
        }
      ],
      "stateMutability": "view",
      "type": "function"
    },
    {
      "inputs": [
        {
          "internalType": "address",
          "name": "",
          "type": "address"
        }
      ],
      "name": "addressToTAL",
      "outputs": [
        {
          "internalType": "uint256",
          "name": "",
          "type": "uint256"
        }
      ],
      "stateMutability": "view",
      "type": "function"
    },
    {
      "inputs": [
        {
          "internalType": "address",
          "name": "_from",
          "type": "address"
        },
        {
          "internalType": "uint256",
          "name": "_amount",
          "type": "uint256"
        }
      ],
      "name": "adminBurn",
      "outputs": [],
      "stateMutability": "nonpayable",
      "type": "function"
    },
    {
      "inputs": [
        {
          "internalType": "address",
          "name": "_to",
          "type": "address"
        },
        {
          "internalType": "uint256",
          "name": "_amount",
          "type": "uint256"
        },
        {
          "internalType": "enum IVirtualTAL.MintReason",
          "name": "_reason",
          "type": "uint8"
        }
      ],
      "name": "adminMint",
      "outputs": [],
      "stateMutability": "nonpayable",
      "type": "function"
    },
    {
      "inputs": [
        {
          "internalType": "address",
          "name": "owner",
          "type": "address"
        },
        {
          "internalType": "address",
          "name": "spender",
          "type": "address"
        }
      ],
      "name": "allowance",
      "outputs": [
        {
          "internalType": "uint256",
          "name": "",
          "type": "uint256"
        }
      ],
      "stateMutability": "view",
      "type": "function"
    },
    {
      "inputs": [
        {
          "internalType": "address",
          "name": "spender",
          "type": "address"
        },
        {
          "internalType": "uint256",
          "name": "amount",
          "type": "uint256"
        }
      ],
      "name": "approve",
      "outputs": [
        {
          "internalType": "bool",
          "name": "",
          "type": "bool"
        }
      ],
      "stateMutability": "nonpayable",
      "type": "function"
    },
    {
      "inputs": [
        {
          "internalType": "address",
          "name": "spender",
          "type": "address"
        },
        {
          "internalType": "uint256",
          "name": "amount",
          "type": "uint256"
        }
      ],
      "name": "approveAndCall",
      "outputs": [
        {
          "internalType": "bool",
          "name": "",
          "type": "bool"
        }
      ],
      "stateMutability": "nonpayable",
      "type": "function"
    },
    {
      "inputs": [
        {
          "internalType": "address",
          "name": "spender",
          "type": "address"
        },
        {
          "internalType": "uint256",
          "name": "amount",
          "type": "uint256"
        },
        {
          "internalType": "bytes",
          "name": "data",
          "type": "bytes"
        }
      ],
      "name": "approveAndCall",
      "outputs": [
        {
          "internalType": "bool",
          "name": "",
          "type": "bool"
        }
      ],
      "stateMutability": "nonpayable",
      "type": "function"
    },
    {
      "inputs": [
        {
          "internalType": "address",
          "name": "account",
          "type": "address"
        }
      ],
      "name": "balanceOf",
      "outputs": [
        {
          "internalType": "uint256",
          "name": "",
          "type": "uint256"
        }
      ],
      "stateMutability": "view",
      "type": "function"
    },
    {
      "inputs": [],
      "name": "decimals",
      "outputs": [
        {
          "internalType": "uint8",
          "name": "",
          "type": "uint8"
        }
      ],
      "stateMutability": "view",
      "type": "function"
    },
    {
      "inputs": [
        {
          "internalType": "address",
          "name": "spender",
          "type": "address"
        },
        {
          "internalType": "uint256",
          "name": "subtractedValue",
          "type": "uint256"
        }
      ],
      "name": "decreaseAllowance",
      "outputs": [
        {
          "internalType": "bool",
          "name": "",
          "type": "bool"
        }
      ],
      "stateMutability": "nonpayable",
      "type": "function"
    },
    {
      "inputs": [
        {
          "internalType": "address",
          "name": "_owner",
          "type": "address"
        }
      ],
      "name": "getBalance",
      "outputs": [
        {
          "internalType": "uint256",
          "name": "",
          "type": "uint256"
        }
      ],
      "stateMutability": "view",
      "type": "function"
    },
    {
      "inputs": [
        {
          "internalType": "bytes32",
          "name": "role",
          "type": "bytes32"
        }
      ],
      "name": "getRoleAdmin",
      "outputs": [
        {
          "internalType": "bytes32",
          "name": "",
          "type": "bytes32"
        }
      ],
      "stateMutability": "view",
      "type": "function"
    },
    {
      "inputs": [
        {
          "internalType": "bytes32",
          "name": "role",
          "type": "bytes32"
        },
        {
          "internalType": "address",
          "name": "account",
          "type": "address"
        }
      ],
      "name": "grantRole",
      "outputs": [],
      "stateMutability": "nonpayable",
      "type": "function"
    },
    {
      "inputs": [
        {
          "internalType": "bytes32",
          "name": "role",
          "type": "bytes32"
        },
        {
          "internalType": "address",
          "name": "account",
          "type": "address"
        }
      ],
      "name": "hasRole",
      "outputs": [
        {
          "internalType": "bool",
          "name": "",
          "type": "bool"
        }
      ],
      "stateMutability": "view",
      "type": "function"
    },
    {
      "inputs": [
        {
          "internalType": "address",
          "name": "spender",
          "type": "address"
        },
        {
          "internalType": "uint256",
          "name": "addedValue",
          "type": "uint256"
        }
      ],
      "name": "increaseAllowance",
      "outputs": [
        {
          "internalType": "bool",
          "name": "",
          "type": "bool"
        }
      ],
      "stateMutability": "nonpayable",
      "type": "function"
    },
    {
      "inputs": [],
      "name": "initialize",
      "outputs": [],
      "stateMutability": "nonpayable",
      "type": "function"
    },
    {
      "inputs": [],
      "name": "name",
      "outputs": [
        {
          "internalType": "string",
          "name": "",
          "type": "string"
        }
      ],
      "stateMutability": "view",
      "type": "function"
    },
    {
      "inputs": [],
      "name": "proxiableUUID",
      "outputs": [
        {
          "internalType": "bytes32",
          "name": "",
          "type": "bytes32"
        }
      ],
      "stateMutability": "view",
      "type": "function"
    },
    {
      "inputs": [
        {
          "internalType": "bytes32",
          "name": "role",
          "type": "bytes32"
        },
        {
          "internalType": "address",
          "name": "account",
          "type": "address"
        }
      ],
      "name": "renounceRole",
      "outputs": [],
      "stateMutability": "nonpayable",
      "type": "function"
    },
    {
      "inputs": [
        {
          "internalType": "bytes32",
          "name": "role",
          "type": "bytes32"
        },
        {
          "internalType": "address",
          "name": "account",
          "type": "address"
        }
      ],
      "name": "revokeRole",
      "outputs": [],
      "stateMutability": "nonpayable",
      "type": "function"
    },
    {
      "inputs": [
        {
          "internalType": "address",
          "name": "_address",
          "type": "address"
        }
      ],
      "name": "setAdminRole",
      "outputs": [],
      "stateMutability": "nonpayable",
      "type": "function"
    },
    {
      "inputs": [
        {
          "internalType": "bytes4",
          "name": "interfaceId",
          "type": "bytes4"
        }
      ],
      "name": "supportsInterface",
      "outputs": [
        {
          "internalType": "bool",
          "name": "",
          "type": "bool"
        }
      ],
      "stateMutability": "view",
      "type": "function"
    },
    {
      "inputs": [],
      "name": "symbol",
      "outputs": [
        {
          "internalType": "string",
          "name": "",
          "type": "string"
        }
      ],
      "stateMutability": "view",
      "type": "function"
    },
    {
      "inputs": [],
      "name": "totalSupply",
      "outputs": [
        {
          "internalType": "uint256",
          "name": "",
          "type": "uint256"
        }
      ],
      "stateMutability": "view",
      "type": "function"
    },
    {
      "inputs": [
        {
          "internalType": "address",
          "name": "to",
          "type": "address"
        },
        {
          "internalType": "uint256",
          "name": "amount",
          "type": "uint256"
        }
      ],
      "name": "transfer",
      "outputs": [
        {
          "internalType": "bool",
          "name": "",
          "type": "bool"
        }
      ],
      "stateMutability": "nonpayable",
      "type": "function"
    },
    {
      "inputs": [
        {
          "internalType": "address",
          "name": "recipient",
          "type": "address"
        },
        {
          "internalType": "uint256",
          "name": "amount",
          "type": "uint256"
        }
      ],
      "name": "transferAndCall",
      "outputs": [
        {
          "internalType": "bool",
          "name": "",
          "type": "bool"
        }
      ],
      "stateMutability": "nonpayable",
      "type": "function"
    },
    {
      "inputs": [
        {
          "internalType": "address",
          "name": "recipient",
          "type": "address"
        },
        {
          "internalType": "uint256",
          "name": "amount",
          "type": "uint256"
        },
        {
          "internalType": "bytes",
          "name": "data",
          "type": "bytes"
        }
      ],
      "name": "transferAndCall",
      "outputs": [
        {
          "internalType": "bool",
          "name": "",
          "type": "bool"
        }
      ],
      "stateMutability": "nonpayable",
      "type": "function"
    },
    {
      "inputs": [
        {
          "internalType": "address",
          "name": "from",
          "type": "address"
        },
        {
          "internalType": "address",
          "name": "to",
          "type": "address"
        },
        {
          "internalType": "uint256",
          "name": "amount",
          "type": "uint256"
        }
      ],
      "name": "transferFrom",
      "outputs": [
        {
          "internalType": "bool",
          "name": "",
          "type": "bool"
        }
      ],
      "stateMutability": "nonpayable",
      "type": "function"
    },
    {
      "inputs": [
        {
          "internalType": "address",
          "name": "sender",
          "type": "address"
        },
        {
          "internalType": "address",
          "name": "recipient",
          "type": "address"
        },
        {
          "internalType": "uint256",
          "name": "amount",
          "type": "uint256"
        },
        {
          "internalType": "bytes",
          "name": "data",
          "type": "bytes"
        }
      ],
      "name": "transferFromAndCall",
      "outputs": [
        {
          "internalType": "bool",
          "name": "",
          "type": "bool"
        }
      ],
      "stateMutability": "nonpayable",
      "type": "function"
    },
    {
      "inputs": [
        {
          "internalType": "address",
          "name": "sender",
          "type": "address"
        },
        {
          "internalType": "address",
          "name": "recipient",
          "type": "address"
        },
        {
          "internalType": "uint256",
          "name": "amount",
          "type": "uint256"
        }
      ],
      "name": "transferFromAndCall",
      "outputs": [
        {
          "internalType": "bool",
          "name": "",
          "type": "bool"
        }
      ],
      "stateMutability": "nonpayable",
      "type": "function"
    },
    {
      "inputs": [
        {
          "internalType": "address",
          "name": "newImplementation",
          "type": "address"
        }
      ],
      "name": "upgradeTo",
      "outputs": [],
      "stateMutability": "nonpayable",
      "type": "function"
    },
    {
      "inputs": [
        {
          "internalType": "address",
          "name": "newImplementation",
          "type": "address"
        },
        {
          "internalType": "bytes",
          "name": "data",
          "type": "bytes"
        }
      ],
      "name": "upgradeToAndCall",
      "outputs": [],
      "stateMutability": "payable",
      "type": "function"
    }
  ],
  "bytecode": "0x60a06040523060805234801561001457600080fd5b50608051612a2a61004c600039600081816109bb01528181610a4001528181610bfe01528181610c830152610d690152612a2a6000f3fe6080604052600436106101fe5760003560e01c80634adc7cfd1161011d578063a457c2d7116100b0578063d547741f1161007f578063dd62ed3e11610064578063dd62ed3e146105f8578063e80f5e551461063e578063f8b2cb4f1461065e57600080fd5b8063d547741f146105b8578063d8fbe994146105d857600080fd5b8063a457c2d714610538578063a9059cbb14610558578063c1d34b8914610578578063cae9ca511461059857600080fd5b80638129fc1c116100ec5780638129fc1c146104b357806391d14854146104c857806395d89b411461050e578063a217fddf1461052357600080fd5b80634adc7cfd146104355780634f1ef2861461045557806352d1902d1461046857806370a082311461047d57600080fd5b80632a65c4131161019557806336568abe1161016457806336568abe146103b55780633659cfe6146103d557806339509351146103f55780634000aea01461041557600080fd5b80632a65c4131461032b5780632f2ff15d14610359578063313ce567146103795780633177029f1461039557600080fd5b80631296ee62116101d15780631296ee621461029c57806318160ddd146102bc57806323b872dd146102db578063248a9ca3146102fb57600080fd5b806301ffc9a71461020357806306dd04191461023857806306fdde031461025a578063095ea7b31461027c575b600080fd5b34801561020f57600080fd5b5061022361021e36600461230b565b610695565b60405190151581526020015b60405180910390f35b34801561024457600080fd5b50610258610253366004612344565b6106f4565b005b34801561026657600080fd5b5061026f6107ee565b60405161022f91906123be565b34801561028857600080fd5b50610223610297366004612344565b610880565b3480156102a857600080fd5b506102236102b7366004612344565b610898565b3480156102c857600080fd5b506099545b60405190815260200161022f565b3480156102e757600080fd5b506102236102f63660046123d1565b6108bb565b34801561030757600080fd5b506102cd61031636600461240d565b60009081526065602052604090206001015490565b34801561033757600080fd5b506102cd610346366004612426565b61015e6020526000908152604090205481565b34801561036557600080fd5b50610258610374366004612441565b6108df565b34801561038557600080fd5b506040516012815260200161022f565b3480156103a157600080fd5b506102236103b0366004612344565b610909565b3480156103c157600080fd5b506102586103d0366004612441565b610925565b3480156103e157600080fd5b506102586103f0366004612426565b6109b1565b34801561040157600080fd5b50610223610410366004612344565b610b2c565b34801561042157600080fd5b50610223610430366004612510565b610b6b565b34801561044157600080fd5b50610258610450366004612426565b610bde565b610258610463366004612567565b610bf4565b34801561047457600080fd5b506102cd610d5c565b34801561048957600080fd5b506102cd610498366004612426565b6001600160a01b031660009081526097602052604090205490565b3480156104bf57600080fd5b50610258610e21565b3480156104d457600080fd5b506102236104e3366004612441565b60009182526065602090815260408084206001600160a01b0393909316845291905290205460ff1690565b34801561051a57600080fd5b5061026f610fcf565b34801561052f57600080fd5b506102cd600081565b34801561054457600080fd5b50610223610553366004612344565b610fde565b34801561056457600080fd5b50610223610573366004612344565b611088565b34801561058457600080fd5b506102236105933660046125b5565b611096565b3480156105a457600080fd5b506102236105b3366004612510565b611112565b3480156105c457600080fd5b506102586105d3366004612441565b61119b565b3480156105e457600080fd5b506102236105f33660046123d1565b6111c0565b34801561060457600080fd5b506102cd61061336600461261d565b6001600160a01b03918216600090815260986020908152604080832093909416825291909152205490565b34801561064a57600080fd5b50610258610659366004612647565b6111dd565b34801561066a57600080fd5b506102cd610679366004612426565b6001600160a01b0316600090815261015e602052604090205490565b60006001600160e01b031982167f36372b070000000000000000000000000000000000000000000000000000000014806106df57506001600160e01b0319821663b0202a1160e01b145b806106ee57506106ee8261126c565b92915050565b60006106ff81611291565b6001600160a01b038316600090815261015e602052604090205482111561076d5760405162461bcd60e51b815260206004820152601960248201527f6e6f7420656e6f75676820616d6f756e7420746f206275726e0000000000000060448201526064015b60405180910390fd5b6001600160a01b038316600090815261015e60205260409020546107929083906126a1565b6001600160a01b038416600081815261015e60209081526040918290209390935580519182529181018490527ffe762046e8788909c18a64333b5c748f160f1ea50f95fe43d56e9b6a0bdb2746910160405180910390a1505050565b6060609a80546107fd906126b4565b80601f0160208091040260200160405190810160405280929190818152602001828054610829906126b4565b80156108765780601f1061084b57610100808354040283529160200191610876565b820191906000526020600020905b81548152906001019060200180831161085957829003601f168201915b5050505050905090565b60003361088e81858561129b565b5060019392505050565b60006108b4838360405180602001604052806000815250610b6b565b9392505050565b6000336108c98582856113f3565b6108d4858585611485565b506001949350505050565b6000828152606560205260409020600101546108fa81611291565b6109048383611679565b505050565b60006108b4838360405180602001604052806000815250611112565b6001600160a01b03811633146109a35760405162461bcd60e51b815260206004820152602f60248201527f416363657373436f6e74726f6c3a2063616e206f6e6c792072656e6f756e636560448201527f20726f6c657320666f722073656c6600000000000000000000000000000000006064820152608401610764565b6109ad828261171b565b5050565b6001600160a01b037f0000000000000000000000000000000000000000000000000000000000000000163003610a3e5760405162461bcd60e51b815260206004820152602c60248201527f46756e6374696f6e206d7573742062652063616c6c6564207468726f7567682060448201526b19195b1959d85d1958d85b1b60a21b6064820152608401610764565b7f00000000000000000000000000000000000000000000000000000000000000006001600160a01b0316610a997f360894a13ba1a3210667c828492db98dca3e2076cc3735a920a3ca505d382bbc546001600160a01b031690565b6001600160a01b031614610b045760405162461bcd60e51b815260206004820152602c60248201527f46756e6374696f6e206d7573742062652063616c6c6564207468726f7567682060448201526b6163746976652070726f787960a01b6064820152608401610764565b610b0d8161179e565b60408051600080825260208201909252610b29918391906117a9565b50565b3360008181526098602090815260408083206001600160a01b038716845290915281205490919061088e9082908690610b669087906126ee565b61129b565b6000610b778484611088565b50610b8433858585611949565b61088e5760405162461bcd60e51b815260206004820152602560248201527f455243313336333a2072656365697665722072657475726e65642077726f6e67604482015264206461746160d81b6064820152608401610764565b6000610be981611291565b6109ad600083611679565b6001600160a01b037f0000000000000000000000000000000000000000000000000000000000000000163003610c815760405162461bcd60e51b815260206004820152602c60248201527f46756e6374696f6e206d7573742062652063616c6c6564207468726f7567682060448201526b19195b1959d85d1958d85b1b60a21b6064820152608401610764565b7f00000000000000000000000000000000000000000000000000000000000000006001600160a01b0316610cdc7f360894a13ba1a3210667c828492db98dca3e2076cc3735a920a3ca505d382bbc546001600160a01b031690565b6001600160a01b031614610d475760405162461bcd60e51b815260206004820152602c60248201527f46756e6374696f6e206d7573742062652063616c6c6564207468726f7567682060448201526b6163746976652070726f787960a01b6064820152608401610764565b610d508261179e565b6109ad828260016117a9565b6000306001600160a01b037f00000000000000000000000000000000000000000000000000000000000000001614610dfc5760405162461bcd60e51b815260206004820152603860248201527f555550535570677261646561626c653a206d757374206e6f742062652063616c60448201527f6c6564207468726f7567682064656c656761746563616c6c00000000000000006064820152608401610764565b507f360894a13ba1a3210667c828492db98dca3e2076cc3735a920a3ca505d382bbc90565b600054610100900460ff1615808015610e415750600054600160ff909116105b80610e5b5750303b158015610e5b575060005460ff166001145b610ecd5760405162461bcd60e51b815260206004820152602e60248201527f496e697469616c697a61626c653a20636f6e747261637420697320616c72656160448201527f647920696e697469616c697a65640000000000000000000000000000000000006064820152608401610764565b6000805460ff191660011790558015610ef0576000805461ff0019166101001790555b610ef8611b02565b610f00611b02565b610f08611b02565b610f7c6040518060400160405280600b81526020017f5669727475616c2054414c0000000000000000000000000000000000000000008152506040518060400160405280600481526020017f7654414c00000000000000000000000000000000000000000000000000000000815250611b6f565b610f87600033611679565b8015610b29576000805461ff0019169055604051600181527f7f26b83ff96e1f2b6a682f133852f6798a09c465da95921460cefb38474024989060200160405180910390a150565b6060609b80546107fd906126b4565b3360008181526098602090815260408083206001600160a01b03871684529091528120549091908381101561107b5760405162461bcd60e51b815260206004820152602560248201527f45524332303a2064656372656173656420616c6c6f77616e63652062656c6f7760448201527f207a65726f0000000000000000000000000000000000000000000000000000006064820152608401610764565b6108d4828686840361129b565b60003361088e818585611485565b60006110a38585856108bb565b506110b085858585611949565b6108d45760405162461bcd60e51b815260206004820152602560248201527f455243313336333a2072656365697665722072657475726e65642077726f6e67604482015264206461746160d81b6064820152608401610764565b949350505050565b600061111e8484610880565b5061112a848484611bf3565b61088e5760405162461bcd60e51b8152602060048201526024808201527f455243313336333a207370656e6465722072657475726e65642077726f6e672060448201527f64617461000000000000000000000000000000000000000000000000000000006064820152608401610764565b6000828152606560205260409020600101546111b681611291565b610904838361171b565b600061110a84848460405180602001604052806000815250611096565b60006111e881611291565b6001600160a01b038416600090815261015e602052604090205461120d9084906126ee565b6001600160a01b038516600090815261015e60205260409081902091909155517fb2a10068f3b5317b4c5821decb33eecf1e94d915a62a315a7b75c70ac3cd89be9061125e90869086908690612701565b60405180910390a150505050565b60006001600160e01b0319821663b0202a1160e01b14806106ee57506106ee82611da2565b610b298133611e09565b6001600160a01b0383166113165760405162461bcd60e51b8152602060048201526024808201527f45524332303a20617070726f76652066726f6d20746865207a65726f2061646460448201527f72657373000000000000000000000000000000000000000000000000000000006064820152608401610764565b6001600160a01b0382166113925760405162461bcd60e51b815260206004820152602260248201527f45524332303a20617070726f766520746f20746865207a65726f20616464726560448201527f73730000000000000000000000000000000000000000000000000000000000006064820152608401610764565b6001600160a01b0383811660008181526098602090815260408083209487168084529482529182902085905590518481527f8c5be1e5ebec7d5bd14f71427d1e84f3dd0314c0f7b2291e5b200ac8c7c3b925910160405180910390a3505050565b6001600160a01b03838116600090815260986020908152604080832093861683529290522054600019811461147f57818110156114725760405162461bcd60e51b815260206004820152601d60248201527f45524332303a20696e73756666696369656e7420616c6c6f77616e63650000006044820152606401610764565b61147f848484840361129b565b50505050565b6001600160a01b0383166115015760405162461bcd60e51b815260206004820152602560248201527f45524332303a207472616e736665722066726f6d20746865207a65726f20616460448201527f64726573730000000000000000000000000000000000000000000000000000006064820152608401610764565b6001600160a01b03821661157d5760405162461bcd60e51b815260206004820152602360248201527f45524332303a207472616e7366657220746f20746865207a65726f206164647260448201527f65737300000000000000000000000000000000000000000000000000000000006064820152608401610764565b6001600160a01b0383166000908152609760205260409020548181101561160c5760405162461bcd60e51b815260206004820152602660248201527f45524332303a207472616e7366657220616d6f756e742065786365656473206260448201527f616c616e636500000000000000000000000000000000000000000000000000006064820152608401610764565b6001600160a01b0380851660008181526097602052604080822086860390559286168082529083902080548601905591517fddf252ad1be2c89b69c2b068fc378daa952ba7f163c4a11628f55a4df523b3ef9061166c9086815260200190565b60405180910390a361147f565b60008281526065602090815260408083206001600160a01b038516845290915290205460ff166109ad5760008281526065602090815260408083206001600160a01b03851684529091529020805460ff191660011790556116d73390565b6001600160a01b0316816001600160a01b0316837f2f8788117e7eff1d82e926ec794901d17c78024a50270940304540a733656f0d60405160405180910390a45050565b60008281526065602090815260408083206001600160a01b038516845290915290205460ff16156109ad5760008281526065602090815260408083206001600160a01b0385168085529252808320805460ff1916905551339285917ff6391f5c32d9c69d2a47ea670b442974b53935d1edc7fd64eb21e047a839171b9190a45050565b60006109ad81611291565b7f4910fdfa16fed3260ed0e7147f7cc6da11a60208b5b9406d12a635614ffd91435460ff16156117dc5761090483611e7e565b826001600160a01b03166352d1902d6040518163ffffffff1660e01b8152600401602060405180830381865afa925050508015611836575060408051601f3d908101601f1916820190925261183391810190612744565b60015b6118a85760405162461bcd60e51b815260206004820152602e60248201527f45524331393637557067726164653a206e657720696d706c656d656e7461746960448201527f6f6e206973206e6f7420555550530000000000000000000000000000000000006064820152608401610764565b7f360894a13ba1a3210667c828492db98dca3e2076cc3735a920a3ca505d382bbc811461193d5760405162461bcd60e51b815260206004820152602960248201527f45524331393637557067726164653a20756e737570706f727465642070726f7860448201527f6961626c655555494400000000000000000000000000000000000000000000006064820152608401610764565b50610904838383611f54565b60006001600160a01b0384163b6119c85760405162461bcd60e51b815260206004820152602960248201527f455243313336333a207472616e7366657220746f206e6f6e20636f6e7472616360448201527f74206164647265737300000000000000000000000000000000000000000000006064820152608401610764565b604051632229f29760e21b81526001600160a01b038516906388a7ca5c906119fa90339089908890889060040161275d565b6020604051808303816000875af1925050508015611a35575060408051601f3d908101601f19168201909252611a3291810190612799565b60015b611ae8573d808015611a63576040519150601f19603f3d011682016040523d82523d6000602084013e611a68565b606091505b508051600003611ae05760405162461bcd60e51b815260206004820152603460248201527f455243313336333a207472616e7366657220746f206e6f6e204552433133363360448201527f526563656976657220696d706c656d656e7465720000000000000000000000006064820152608401610764565b805181602001fd5b6001600160e01b031916632229f29760e21b14905061110a565b600054610100900460ff16611b6d5760405162461bcd60e51b815260206004820152602b60248201527f496e697469616c697a61626c653a20636f6e7472616374206973206e6f74206960448201526a6e697469616c697a696e6760a81b6064820152608401610764565b565b600054610100900460ff16611bda5760405162461bcd60e51b815260206004820152602b60248201527f496e697469616c697a61626c653a20636f6e7472616374206973206e6f74206960448201526a6e697469616c697a696e6760a81b6064820152608401610764565b609a611be68382612804565b50609b6109048282612804565b60006001600160a01b0384163b611c725760405162461bcd60e51b815260206004820152602760248201527f455243313336333a20617070726f76652061206e6f6e20636f6e74726163742060448201527f61646472657373000000000000000000000000000000000000000000000000006064820152608401610764565b6040516307b04a2d60e41b81526001600160a01b03851690637b04a2d090611ca2903390879087906004016128c4565b6020604051808303816000875af1925050508015611cdd575060408051601f3d908101601f19168201909252611cda91810190612799565b60015b611d88573d808015611d0b576040519150601f19603f3d011682016040523d82523d6000602084013e611d10565b606091505b508051600003611ae05760405162461bcd60e51b815260206004820152603160248201527f455243313336333a20617070726f76652061206e6f6e2045524331333633537060448201527f656e64657220696d706c656d656e7465720000000000000000000000000000006064820152608401610764565b6001600160e01b0319166307b04a2d60e41b1490506108b4565b60006001600160e01b031982167f7965db0b0000000000000000000000000000000000000000000000000000000014806106ee57507f01ffc9a7000000000000000000000000000000000000000000000000000000006001600160e01b03198316146106ee565b60008281526065602090815260408083206001600160a01b038516845290915290205460ff166109ad57611e3c81611f79565b611e47836020611f8b565b604051602001611e589291906128ec565b60408051601f198184030181529082905262461bcd60e51b8252610764916004016123be565b6001600160a01b0381163b611efb5760405162461bcd60e51b815260206004820152602d60248201527f455243313936373a206e657720696d706c656d656e746174696f6e206973206e60448201527f6f74206120636f6e7472616374000000000000000000000000000000000000006064820152608401610764565b7f360894a13ba1a3210667c828492db98dca3e2076cc3735a920a3ca505d382bbc80547fffffffffffffffffffffffff0000000000000000000000000000000000000000166001600160a01b0392909216919091179055565b611f5d8361216c565b600082511180611f6a5750805b156109045761147f83836121ac565b60606106ee6001600160a01b03831660145b60606000611f9a83600261296d565b611fa59060026126ee565b67ffffffffffffffff811115611fbd57611fbd61246d565b6040519080825280601f01601f191660200182016040528015611fe7576020820181803683370190505b5090507f30000000000000000000000000000000000000000000000000000000000000008160008151811061201e5761201e612984565b60200101906001600160f81b031916908160001a9053507f78000000000000000000000000000000000000000000000000000000000000008160018151811061206957612069612984565b60200101906001600160f81b031916908160001a905350600061208d84600261296d565b6120989060016126ee565b90505b600181111561211d577f303132333435363738396162636465660000000000000000000000000000000085600f16601081106120d9576120d9612984565b1a60f81b8282815181106120ef576120ef612984565b60200101906001600160f81b031916908160001a90535060049490941c936121168161299a565b905061209b565b5083156108b45760405162461bcd60e51b815260206004820181905260248201527f537472696e67733a20686578206c656e67746820696e73756666696369656e746044820152606401610764565b61217581611e7e565b6040516001600160a01b038216907fbc7cd75a20ee27fd9adebab32041f755214dbc6bffa90cc0225b39da2e5c2d3b90600090a250565b60606001600160a01b0383163b61222b5760405162461bcd60e51b815260206004820152602660248201527f416464726573733a2064656c65676174652063616c6c20746f206e6f6e2d636f60448201527f6e747261637400000000000000000000000000000000000000000000000000006064820152608401610764565b600080846001600160a01b03168460405161224691906129b1565b600060405180830381855af49150503d8060008114612281576040519150601f19603f3d011682016040523d82523d6000602084013e612286565b606091505b50915091506122ae82826040518060600160405280602781526020016129ce602791396122b7565b95945050505050565b606083156122c65750816108b4565b6108b483838151156122db5781518083602001fd5b8060405162461bcd60e51b815260040161076491906123be565b6001600160e01b031981168114610b2957600080fd5b60006020828403121561231d57600080fd5b81356108b4816122f5565b80356001600160a01b038116811461233f57600080fd5b919050565b6000806040838503121561235757600080fd5b61236083612328565b946020939093013593505050565b60005b83811015612389578181015183820152602001612371565b50506000910152565b600081518084526123aa81602086016020860161236e565b601f01601f19169290920160200192915050565b6020815260006108b46020830184612392565b6000806000606084860312156123e657600080fd5b6123ef84612328565b92506123fd60208501612328565b9150604084013590509250925092565b60006020828403121561241f57600080fd5b5035919050565b60006020828403121561243857600080fd5b6108b482612328565b6000806040838503121561245457600080fd5b8235915061246460208401612328565b90509250929050565b634e487b7160e01b600052604160045260246000fd5b600082601f83011261249457600080fd5b813567ffffffffffffffff808211156124af576124af61246d565b604051601f8301601f19908116603f011681019082821181831017156124d7576124d761246d565b816040528381528660208588010111156124f057600080fd5b836020870160208301376000602085830101528094505050505092915050565b60008060006060848603121561252557600080fd5b61252e84612328565b925060208401359150604084013567ffffffffffffffff81111561255157600080fd5b61255d86828701612483565b9150509250925092565b6000806040838503121561257a57600080fd5b61258383612328565b9150602083013567ffffffffffffffff81111561259f57600080fd5b6125ab85828601612483565b9150509250929050565b600080600080608085870312156125cb57600080fd5b6125d485612328565b93506125e260208601612328565b925060408501359150606085013567ffffffffffffffff81111561260557600080fd5b61261187828801612483565b91505092959194509250565b6000806040838503121561263057600080fd5b61263983612328565b915061246460208401612328565b60008060006060848603121561265c57600080fd5b61266584612328565b92506020840135915060408401356006811061268057600080fd5b809150509250925092565b634e487b7160e01b600052601160045260246000fd5b818103818111156106ee576106ee61268b565b600181811c908216806126c857607f821691505b6020821081036126e857634e487b7160e01b600052602260045260246000fd5b50919050565b808201808211156106ee576106ee61268b565b6001600160a01b038416815260208101839052606081016006831061273657634e487b7160e01b600052602160045260246000fd5b826040830152949350505050565b60006020828403121561275657600080fd5b5051919050565b60006001600160a01b0380871683528086166020840152508360408301526080606083015261278f6080830184612392565b9695505050505050565b6000602082840312156127ab57600080fd5b81516108b4816122f5565b601f82111561090457600081815260208120601f850160051c810160208610156127dd5750805b601f850160051c820191505b818110156127fc578281556001016127e9565b505050505050565b815167ffffffffffffffff81111561281e5761281e61246d565b6128328161282c84546126b4565b846127b6565b602080601f831160018114612867576000841561284f5750858301515b600019600386901b1c1916600185901b1785556127fc565b600085815260208120601f198616915b8281101561289657888601518255948401946001909101908401612877565b50858210156128b45787850151600019600388901b60f8161c191681555b5050505050600190811b01905550565b6001600160a01b03841681528260208201526060604082015260006122ae6060830184612392565b7f416363657373436f6e74726f6c3a206163636f756e742000000000000000000081526000835161292481601785016020880161236e565b7f206973206d697373696e6720726f6c6520000000000000000000000000000000601791840191820152835161296181602884016020880161236e565b01602801949350505050565b80820281158282048414176106ee576106ee61268b565b634e487b7160e01b600052603260045260246000fd5b6000816129a9576129a961268b565b506000190190565b600082516129c381846020870161236e565b919091019291505056fe416464726573733a206c6f772d6c6576656c2064656c65676174652063616c6c206661696c6564a264697066735822122008552588aa1f78eed31a66b00ed22b0995e2a06acda3a7d55c182285a5e60e9564736f6c63430008110033",
  "linkReferences": {},
  "deployedLinkReferences": {}
}