{
  "_format": "hh-sol-artifact-1",
  "contractName": "CommunityMember",
  "sourceName": "contracts/CommunityMember.sol",
  "abi": [
    {
      "inputs": [
        {
          "internalType": "address",
          "name": "_owner",
          "type": "address"
        },
        {
          "internalType": "string",
          "name": "_ticker",
          "type": "string"
        }
      ],
      "stateMutability": "nonpayable",
      "type": "constructor"
    },
    {
      "anonymous": false,
      "inputs": [
        {
          "indexed": true,
          "internalType": "address",
          "name": "owner",
          "type": "address"
        },
        {
          "indexed": true,
          "internalType": "address",
          "name": "approved",
          "type": "address"
        },
        {
          "indexed": true,
          "internalType": "uint256",
          "name": "tokenId",
          "type": "uint256"
        }
      ],
      "name": "Approval",
      "type": "event"
    },
    {
      "anonymous": false,
      "inputs": [
        {
          "indexed": true,
          "internalType": "address",
          "name": "owner",
          "type": "address"
        },
        {
          "indexed": true,
          "internalType": "address",
          "name": "operator",
          "type": "address"
        },
        {
          "indexed": false,
          "internalType": "bool",
          "name": "approved",
          "type": "bool"
        }
      ],
      "name": "ApprovalForAll",
      "type": "event"
    },
    {
      "anonymous": false,
      "inputs": [
        {
          "indexed": true,
          "internalType": "bytes32",
          "name": "role",
          "type": "bytes32"
        },
        {
          "indexed": true,
          "internalType": "bytes32",
          "name": "previousAdminRole",
          "type": "bytes32"
        },
        {
          "indexed": true,
          "internalType": "bytes32",
          "name": "newAdminRole",
          "type": "bytes32"
        }
      ],
      "name": "RoleAdminChanged",
      "type": "event"
    },
    {
      "anonymous": false,
      "inputs": [
        {
          "indexed": true,
          "internalType": "bytes32",
          "name": "role",
          "type": "bytes32"
        },
        {
          "indexed": true,
          "internalType": "address",
          "name": "account",
          "type": "address"
        },
        {
          "indexed": true,
          "internalType": "address",
          "name": "sender",
          "type": "address"
        }
      ],
      "name": "RoleGranted",
      "type": "event"
    },
    {
      "anonymous": false,
      "inputs": [
        {
          "indexed": true,
          "internalType": "bytes32",
          "name": "role",
          "type": "bytes32"
        },
        {
          "indexed": true,
          "internalType": "address",
          "name": "account",
          "type": "address"
        },
        {
          "indexed": true,
          "internalType": "address",
          "name": "sender",
          "type": "address"
        }
      ],
      "name": "RoleRevoked",
      "type": "event"
    },
    {
      "anonymous": false,
      "inputs": [
        {
          "indexed": true,
          "internalType": "address",
          "name": "from",
          "type": "address"
        },
        {
          "indexed": true,
          "internalType": "address",
          "name": "to",
          "type": "address"
        },
        {
          "indexed": true,
          "internalType": "uint256",
          "name": "tokenId",
          "type": "uint256"
        }
      ],
      "name": "Transfer",
      "type": "event"
    },
    {
      "inputs": [],
      "name": "DEFAULT_ADMIN_ROLE",
      "outputs": [
        {
          "internalType": "bytes32",
          "name": "",
          "type": "bytes32"
        }
      ],
      "stateMutability": "view",
      "type": "function"
    },
    {
      "inputs": [
        {
          "internalType": "address",
          "name": "_newOwner",
          "type": "address"
        }
      ],
      "name": "addOwner",
      "outputs": [],
      "stateMutability": "nonpayable",
      "type": "function"
    },
    {
      "inputs": [
        {
          "internalType": "address[]",
          "name": "addresses",
          "type": "address[]"
        }
      ],
      "name": "airdrop",
      "outputs": [],
      "stateMutability": "nonpayable",
      "type": "function"
    },
    {
      "inputs": [
        {
          "internalType": "address",
          "name": "to",
          "type": "address"
        },
        {
          "internalType": "uint256",
          "name": "tokenId",
          "type": "uint256"
        }
      ],
      "name": "approve",
      "outputs": [],
      "stateMutability": "nonpayable",
      "type": "function"
    },
    {
      "inputs": [
        {
          "internalType": "address",
          "name": "owner",
          "type": "address"
        }
      ],
      "name": "balanceOf",
      "outputs": [
        {
          "internalType": "uint256",
          "name": "",
          "type": "uint256"
        }
      ],
      "stateMutability": "view",
      "type": "function"
    },
    {
      "inputs": [
        {
          "internalType": "uint256",
          "name": "_id",
          "type": "uint256"
        }
      ],
      "name": "burn",
      "outputs": [],
      "stateMutability": "nonpayable",
      "type": "function"
    },
    {
      "inputs": [
        {
          "internalType": "uint256",
          "name": "tokenId",
          "type": "uint256"
        }
      ],
      "name": "getApproved",
      "outputs": [
        {
          "internalType": "address",
          "name": "",
          "type": "address"
        }
      ],
      "stateMutability": "view",
      "type": "function"
    },
    {
      "inputs": [
        {
          "internalType": "bytes32",
          "name": "role",
          "type": "bytes32"
        }
      ],
      "name": "getRoleAdmin",
      "outputs": [
        {
          "internalType": "bytes32",
          "name": "",
          "type": "bytes32"
        }
      ],
      "stateMutability": "view",
      "type": "function"
    },
    {
      "inputs": [
        {
          "internalType": "bytes32",
          "name": "role",
          "type": "bytes32"
        },
        {
          "internalType": "address",
          "name": "account",
          "type": "address"
        }
      ],
      "name": "grantRole",
      "outputs": [],
      "stateMutability": "nonpayable",
      "type": "function"
    },
    {
      "inputs": [
        {
          "internalType": "bytes32",
          "name": "role",
          "type": "bytes32"
        },
        {
          "internalType": "address",
          "name": "account",
          "type": "address"
        }
      ],
      "name": "hasRole",
      "outputs": [
        {
          "internalType": "bool",
          "name": "",
          "type": "bool"
        }
      ],
      "stateMutability": "view",
      "type": "function"
    },
    {
      "inputs": [
        {
          "internalType": "address",
          "name": "owner",
          "type": "address"
        },
        {
          "internalType": "address",
          "name": "operator",
          "type": "address"
        }
      ],
      "name": "isApprovedForAll",
      "outputs": [
        {
          "internalType": "bool",
          "name": "",
          "type": "bool"
        }
      ],
      "stateMutability": "view",
      "type": "function"
    },
    {
      "inputs": [
        {
          "internalType": "address",
          "name": "_to",
          "type": "address"
        }
      ],
      "name": "mint",
      "outputs": [],
      "stateMutability": "nonpayable",
      "type": "function"
    },
    {
      "inputs": [],
      "name": "name",
      "outputs": [
        {
          "internalType": "string",
          "name": "",
          "type": "string"
        }
      ],
      "stateMutability": "view",
      "type": "function"
    },
    {
      "inputs": [
        {
          "internalType": "uint256",
          "name": "tokenId",
          "type": "uint256"
        }
      ],
      "name": "ownerOf",
      "outputs": [
        {
          "internalType": "address",
          "name": "",
          "type": "address"
        }
      ],
      "stateMutability": "view",
      "type": "function"
    },
    {
      "inputs": [
        {
          "internalType": "bytes32",
          "name": "role",
          "type": "bytes32"
        },
        {
          "internalType": "address",
          "name": "account",
          "type": "address"
        }
      ],
      "name": "renounceRole",
      "outputs": [],
      "stateMutability": "nonpayable",
      "type": "function"
    },
    {
      "inputs": [
        {
          "internalType": "bytes32",
          "name": "role",
          "type": "bytes32"
        },
        {
          "internalType": "address",
          "name": "account",
          "type": "address"
        }
      ],
      "name": "revokeRole",
      "outputs": [],
      "stateMutability": "nonpayable",
      "type": "function"
    },
    {
      "inputs": [
        {
          "internalType": "address",
          "name": "from",
          "type": "address"
        },
        {
          "internalType": "address",
          "name": "to",
          "type": "address"
        },
        {
          "internalType": "uint256",
          "name": "tokenId",
          "type": "uint256"
        }
      ],
      "name": "safeTransferFrom",
      "outputs": [],
      "stateMutability": "nonpayable",
      "type": "function"
    },
    {
      "inputs": [
        {
          "internalType": "address",
          "name": "from",
          "type": "address"
        },
        {
          "internalType": "address",
          "name": "to",
          "type": "address"
        },
        {
          "internalType": "uint256",
          "name": "tokenId",
          "type": "uint256"
        },
        {
          "internalType": "bytes",
          "name": "data",
          "type": "bytes"
        }
      ],
      "name": "safeTransferFrom",
      "outputs": [],
      "stateMutability": "nonpayable",
      "type": "function"
    },
    {
      "inputs": [
        {
          "internalType": "address",
          "name": "operator",
          "type": "address"
        },
        {
          "internalType": "bool",
          "name": "approved",
          "type": "bool"
        }
      ],
      "name": "setApprovalForAll",
      "outputs": [],
      "stateMutability": "nonpayable",
      "type": "function"
    },
    {
      "inputs": [
        {
          "internalType": "string",
          "name": "baseURI_",
          "type": "string"
        }
      ],
      "name": "setBaseURI",
      "outputs": [],
      "stateMutability": "nonpayable",
      "type": "function"
    },
    {
      "inputs": [
        {
          "internalType": "uint256",
          "name": "tokenId",
          "type": "uint256"
        },
        {
          "internalType": "string",
          "name": "tokenURI_",
          "type": "string"
        }
      ],
      "name": "setTokenURI",
      "outputs": [],
      "stateMutability": "nonpayable",
      "type": "function"
    },
    {
      "inputs": [
        {
          "internalType": "bytes4",
          "name": "interfaceId",
          "type": "bytes4"
        }
      ],
      "name": "supportsInterface",
      "outputs": [
        {
          "internalType": "bool",
          "name": "",
          "type": "bool"
        }
      ],
      "stateMutability": "view",
      "type": "function"
    },
    {
      "inputs": [],
      "name": "symbol",
      "outputs": [
        {
          "internalType": "string",
          "name": "",
          "type": "string"
        }
      ],
      "stateMutability": "view",
      "type": "function"
    },
    {
      "inputs": [
        {
          "internalType": "uint256",
          "name": "index",
          "type": "uint256"
        }
      ],
      "name": "tokenByIndex",
      "outputs": [
        {
          "internalType": "uint256",
          "name": "",
          "type": "uint256"
        }
      ],
      "stateMutability": "view",
      "type": "function"
    },
    {
      "inputs": [
        {
          "internalType": "address",
          "name": "owner",
          "type": "address"
        },
        {
          "internalType": "uint256",
          "name": "index",
          "type": "uint256"
        }
      ],
      "name": "tokenOfOwnerByIndex",
      "outputs": [
        {
          "internalType": "uint256",
          "name": "",
          "type": "uint256"
        }
      ],
      "stateMutability": "view",
      "type": "function"
    },
    {
      "inputs": [
        {
          "internalType": "uint256",
          "name": "tokenId",
          "type": "uint256"
        }
      ],
      "name": "tokenURI",
      "outputs": [
        {
          "internalType": "string",
          "name": "",
          "type": "string"
        }
      ],
      "stateMutability": "view",
      "type": "function"
    },
    {
      "inputs": [],
      "name": "totalSupply",
      "outputs": [
        {
          "internalType": "uint256",
          "name": "",
          "type": "uint256"
        }
      ],
      "stateMutability": "view",
      "type": "function"
    },
    {
      "inputs": [
        {
          "internalType": "address",
          "name": "from",
          "type": "address"
        },
        {
          "internalType": "address",
          "name": "to",
          "type": "address"
        },
        {
          "internalType": "uint256",
          "name": "tokenId",
          "type": "uint256"
        }
      ],
      "name": "transferFrom",
      "outputs": [],
      "stateMutability": "nonpayable",
      "type": "function"
    }
  ],
  "bytecode": "0x60806040523480156200001157600080fd5b506040516200253038038062002530833981016040819052620000349162000204565b6040805180820190915260208082527f54616c656e742050726f746f636f6c20436f6d6d756e697479204d656d62657281830190815283916200007a916000916200015e565b508051620000909060019060208401906200015e565b50620000a291506000905083620000aa565b505062000357565b620000b68282620000ba565b5050565b6000828152600a602090815260408083206001600160a01b038516845290915290205460ff16620000b6576000828152600a602090815260408083206001600160a01b03851684529091529020805460ff191660011790556200011a3390565b6001600160a01b0316816001600160a01b0316837f2f8788117e7eff1d82e926ec794901d17c78024a50270940304540a733656f0d60405160405180910390a45050565b8280546200016c9062000304565b90600052602060002090601f016020900481019282620001905760008555620001db565b82601f10620001ab57805160ff1916838001178555620001db565b82800160010185558215620001db579182015b82811115620001db578251825591602001919060010190620001be565b50620001e9929150620001ed565b5090565b5b80821115620001e95760008155600101620001ee565b600080604083850312156200021857600080fd5b82516001600160a01b03811681146200023057600080fd5b602084810151919350906001600160401b03808211156200025057600080fd5b818601915086601f8301126200026557600080fd5b8151818111156200027a576200027a62000341565b604051601f8201601f19908116603f01168101908382118183101715620002a557620002a562000341565b816040528281528986848701011115620002be57600080fd5b600093505b82841015620002e25784840186015181850187015292850192620002c3565b82841115620002f45760008684830101525b8096505050505050509250929050565b600181811c908216806200031957607f821691505b602082108114156200033b57634e487b7160e01b600052602260045260246000fd5b50919050565b634e487b7160e01b600052604160045260246000fd5b6121c980620003676000396000f3fe608060405234801561001057600080fd5b50600436106101c45760003560e01c806355f804b3116100f957806395d89b4111610097578063b88d4fde11610071578063b88d4fde146103e1578063c87b56dd146103ef578063d547741f14610402578063e985e9c51461041557600080fd5b806395d89b41146103be578063a217fddf146103c6578063a22cb465146103ce57600080fd5b80637065cb48116100d35780637065cb481461034c57806370a082311461035f578063729ad39e1461037257806391d148541461038557600080fd5b806355f804b3146103135780636352211e146103265780636a6278421461033957600080fd5b8063248a9ca31161016657806336568abe1161014057806336568abe146102c757806342842e0e146102da57806342966c68146102ed5780634f6ccce71461030057600080fd5b8063248a9ca31461027e5780632f2ff15d146102a15780632f745c59146102b457600080fd5b8063095ea7b3116101a2578063095ea7b314610231578063162094c41461024657806318160ddd1461025957806323b872dd1461026b57600080fd5b806301ffc9a7146101c957806306fdde03146101f1578063081812fc14610206575b600080fd5b6101dc6101d7366004611e58565b610451565b60405190151581526020015b60405180910390f35b6101f9610462565b6040516101e89190611ff7565b610219610214366004611e1c565b6104f4565b6040516001600160a01b0390911681526020016101e8565b61024461023f366004611d3e565b61059f565b005b610244610254366004611ec7565b6106d1565b6008545b6040519081526020016101e8565b610244610279366004611c4a565b61078c565b61025d61028c366004611e1c565b6000908152600a602052604090206001015490565b6102446102af366004611e35565b6107fa565b61025d6102c2366004611d3e565b610820565b6102446102d5366004611e35565b6108c8565b6102446102e8366004611c4a565b610954565b6102446102fb366004611e1c565b61096f565b61025d61030e366004611e1c565b610984565b610244610321366004611e92565b610a28565b610219610334366004611e1c565b610a47565b610244610347366004611bfc565b610ad2565b61024461035a366004611bfc565b610b03565b61025d61036d366004611bfc565b610b1a565b610244610380366004611d68565b610bb4565b6101dc610393366004611e35565b6000918252600a602090815260408084206001600160a01b0393909316845291905290205460ff1690565b6101f9610c99565b61025d600081565b6102446103dc366004611d02565b610ca8565b610244610279366004611c86565b6101f96103fd366004611e1c565b610d6d565b610244610410366004611e35565b610f08565b6101dc610423366004611c17565b6001600160a01b03918216600090815260056020908152604080832093909416825291909152205460ff1690565b600061045c82610f2e565b92915050565b606060008054610471906120cc565b80601f016020809104026020016040519081016040528092919081815260200182805461049d906120cc565b80156104ea5780601f106104bf576101008083540402835291602001916104ea565b820191906000526020600020905b8154815290600101906020018083116104cd57829003601f168201915b5050505050905090565b6000818152600260205260408120546001600160a01b03166105835760405162461bcd60e51b815260206004820152602c60248201527f4552433732313a20617070726f76656420717565727920666f72206e6f6e657860448201527f697374656e7420746f6b656e000000000000000000000000000000000000000060648201526084015b60405180910390fd5b506000908152600460205260409020546001600160a01b031690565b60006105aa82610a47565b9050806001600160a01b0316836001600160a01b031614156106345760405162461bcd60e51b815260206004820152602160248201527f4552433732313a20617070726f76616c20746f2063757272656e74206f776e6560448201527f7200000000000000000000000000000000000000000000000000000000000000606482015260840161057a565b336001600160a01b038216148061065057506106508133610423565b6106c25760405162461bcd60e51b815260206004820152603860248201527f4552433732313a20617070726f76652063616c6c6572206973206e6f74206f7760448201527f6e6572206e6f7220617070726f76656420666f7220616c6c0000000000000000606482015260840161057a565b6106cc8383610f6c565b505050565b60006106dd8133610fe7565b6000838152600260205260409020546001600160a01b03166107675760405162461bcd60e51b815260206004820152602f60248201527f4552433732314d657461646174613a2055524920717565727920666f72206e6f60448201527f6e6578697374656e7420746f6b656e0000000000000000000000000000000000606482015260840161057a565b6000838152600d60209081526040909120835161078692850190611acf565b50505050565b60405162461bcd60e51b815260206004820152602860248201527f436f6d6d756e697479206d656d626572204e4654206973206e6f6e2d7472616e60448201527f7366657261626c65000000000000000000000000000000000000000000000000606482015260840161057a565b6000828152600a60205260409020600101546108168133610fe7565b6106cc8383611067565b600061082b83610b1a565b821061089f5760405162461bcd60e51b815260206004820152602b60248201527f455243373231456e756d657261626c653a206f776e657220696e646578206f7560448201527f74206f6620626f756e6473000000000000000000000000000000000000000000606482015260840161057a565b506001600160a01b03919091166000908152600660209081526040808320938352929052205490565b6001600160a01b03811633146109465760405162461bcd60e51b815260206004820152602f60248201527f416363657373436f6e74726f6c3a2063616e206f6e6c792072656e6f756e636560448201527f20726f6c657320666f722073656c660000000000000000000000000000000000606482015260840161057a565b6109508282611109565b5050565b6106cc8383836040518060200160405280600081525061078c565b600061097b8133610fe7565b6109508261118c565b600061098f60085490565b8210610a035760405162461bcd60e51b815260206004820152602c60248201527f455243373231456e756d657261626c653a20676c6f62616c20696e646578206f60448201527f7574206f6620626f756e64730000000000000000000000000000000000000000606482015260840161057a565b60088281548110610a1657610a1661214e565b90600052602060002001549050919050565b6000610a348133610fe7565b81516106cc90600c906020850190611acf565b6000818152600260205260408120546001600160a01b03168061045c5760405162461bcd60e51b815260206004820152602960248201527f4552433732313a206f776e657220717565727920666f72206e6f6e657869737460448201527f656e7420746f6b656e0000000000000000000000000000000000000000000000606482015260840161057a565b6000610ade8133610fe7565b610aec600b80546001019055565b6000610af7600b5490565b90506106cc8382611240565b6000610b0f8133610fe7565b61095060008361125a565b60006001600160a01b038216610b985760405162461bcd60e51b815260206004820152602a60248201527f4552433732313a2062616c616e636520717565727920666f7220746865207a6560448201527f726f206164647265737300000000000000000000000000000000000000000000606482015260840161057a565b506001600160a01b031660009081526003602052604090205490565b6000610bc08133610fe7565b60005b82518110156106cc5760006001600160a01b0316838281518110610be957610be961214e565b60200260200101516001600160a01b03161415610c485760405162461bcd60e51b815260206004820152601a60248201527f43616e27742061646420746865206e756c6c2061646472657373000000000000604482015260640161057a565b610c56600b80546001019055565b6000610c61600b5490565b9050610c86848381518110610c7857610c7861214e565b602002602001015182611240565b5080610c9181612107565b915050610bc3565b606060018054610471906120cc565b6001600160a01b038216331415610d015760405162461bcd60e51b815260206004820152601960248201527f4552433732313a20617070726f766520746f2063616c6c657200000000000000604482015260640161057a565b3360008181526005602090815260408083206001600160a01b03871680855290835292819020805460ff191686151590811790915590519081529192917f17307eab39ab6107e8899845ad3d59bd9653f200f220920489ca2b5937696c31910160405180910390a35050565b6000818152600260205260409020546060906001600160a01b0316610dfa5760405162461bcd60e51b815260206004820152602f60248201527f4552433732314d657461646174613a2055524920717565727920666f72206e6f60448201527f6e6578697374656e7420746f6b656e0000000000000000000000000000000000606482015260840161057a565b6000610e04611264565b9050805160001415610e585760405162461bcd60e51b815260206004820152601060248201527f4261736520555249206e6f742073657400000000000000000000000000000000604482015260640161057a565b6000838152600d602052604081208054610e71906120cc565b80601f0160208091040260200160405190810160405280929190818152602001828054610e9d906120cc565b8015610eea5780601f10610ebf57610100808354040283529160200191610eea565b820191906000526020600020905b815481529060010190602001808311610ecd57829003601f168201915b505050505090508051600014610f01579392505050565b5092915050565b6000828152600a6020526040902060010154610f248133610fe7565b6106cc8383611109565b60006001600160e01b031982167f7965db0b00000000000000000000000000000000000000000000000000000000148061045c575061045c82611273565b6000818152600460205260409020805473ffffffffffffffffffffffffffffffffffffffff19166001600160a01b0384169081179091558190610fae82610a47565b6001600160a01b03167f8c5be1e5ebec7d5bd14f71427d1e84f3dd0314c0f7b2291e5b200ac8c7c3b92560405160405180910390a45050565b6000828152600a602090815260408083206001600160a01b038516845290915290205460ff1661095057611025816001600160a01b031660146112b1565b6110308360206112b1565b604051602001611041929190611f3a565b60408051601f198184030181529082905262461bcd60e51b825261057a91600401611ff7565b6000828152600a602090815260408083206001600160a01b038516845290915290205460ff16610950576000828152600a602090815260408083206001600160a01b03851684529091529020805460ff191660011790556110c53390565b6001600160a01b0316816001600160a01b0316837f2f8788117e7eff1d82e926ec794901d17c78024a50270940304540a733656f0d60405160405180910390a45050565b6000828152600a602090815260408083206001600160a01b038516845290915290205460ff1615610950576000828152600a602090815260408083206001600160a01b0385168085529252808320805460ff1916905551339285917ff6391f5c32d9c69d2a47ea670b442974b53935d1edc7fd64eb21e047a839171b9190a45050565b600061119782610a47565b90506111a581600084611499565b6111b0600083610f6c565b6001600160a01b03811660009081526003602052604081208054600192906111d9908490612072565b9091555050600082815260026020526040808220805473ffffffffffffffffffffffffffffffffffffffff19169055518391906001600160a01b038416907fddf252ad1be2c89b69c2b068fc378daa952ba7f163c4a11628f55a4df523b3ef908390a45050565b6109508282604051806020016040528060008152506114a4565b6109508282611067565b6060600c8054610471906120cc565b60006001600160e01b031982167f780e9d6300000000000000000000000000000000000000000000000000000000148061045c575061045c8261152d565b606060006112c0836002612053565b6112cb90600261203b565b67ffffffffffffffff8111156112e3576112e3612164565b6040519080825280601f01601f19166020018201604052801561130d576020820181803683370190505b5090507f3000000000000000000000000000000000000000000000000000000000000000816000815181106113445761134461214e565b60200101906001600160f81b031916908160001a9053507f78000000000000000000000000000000000000000000000000000000000000008160018151811061138f5761138f61214e565b60200101906001600160f81b031916908160001a90535060006113b3846002612053565b6113be90600161203b565b90505b6001811115611443577f303132333435363738396162636465660000000000000000000000000000000085600f16601081106113ff576113ff61214e565b1a60f81b8282815181106114155761141561214e565b60200101906001600160f81b031916908160001a90535060049490941c9361143c816120b5565b90506113c1565b5083156114925760405162461bcd60e51b815260206004820181905260248201527f537472696e67733a20686578206c656e67746820696e73756666696369656e74604482015260640161057a565b9392505050565b6106cc8383836115c8565b6114ae8383611680565b6114bb60008484846117db565b6106cc5760405162461bcd60e51b815260206004820152603260248201527f4552433732313a207472616e7366657220746f206e6f6e20455243373231526560448201527f63656976657220696d706c656d656e7465720000000000000000000000000000606482015260840161057a565b60006001600160e01b031982167f80ac58cd00000000000000000000000000000000000000000000000000000000148061159057506001600160e01b031982167f5b5e139f00000000000000000000000000000000000000000000000000000000145b8061045c57507f01ffc9a7000000000000000000000000000000000000000000000000000000006001600160e01b031983161461045c565b6001600160a01b0383166116235761161e81600880546000838152600960205260408120829055600182018355919091527ff3f7a9fe364faab93b216da50a3214154f22a0a2b415b23a84c8169e8b636ee30155565b611646565b816001600160a01b0316836001600160a01b03161461164657611646838261193f565b6001600160a01b03821661165d576106cc816119dc565b826001600160a01b0316826001600160a01b0316146106cc576106cc8282611a8b565b6001600160a01b0382166116d65760405162461bcd60e51b815260206004820181905260248201527f4552433732313a206d696e7420746f20746865207a65726f2061646472657373604482015260640161057a565b6000818152600260205260409020546001600160a01b03161561173b5760405162461bcd60e51b815260206004820152601c60248201527f4552433732313a20746f6b656e20616c7265616479206d696e74656400000000604482015260640161057a565b61174760008383611499565b6001600160a01b038216600090815260036020526040812080546001929061177090849061203b565b9091555050600081815260026020526040808220805473ffffffffffffffffffffffffffffffffffffffff19166001600160a01b03861690811790915590518392907fddf252ad1be2c89b69c2b068fc378daa952ba7f163c4a11628f55a4df523b3ef908290a45050565b60006001600160a01b0384163b1561193357604051630a85bd0160e11b81526001600160a01b0385169063150b7a029061181f903390899088908890600401611fbb565b602060405180830381600087803b15801561183957600080fd5b505af1925050508015611869575060408051601f3d908101601f1916820190925261186691810190611e75565b60015b611919573d808015611897576040519150601f19603f3d011682016040523d82523d6000602084013e61189c565b606091505b5080516119115760405162461bcd60e51b815260206004820152603260248201527f4552433732313a207472616e7366657220746f206e6f6e20455243373231526560448201527f63656976657220696d706c656d656e7465720000000000000000000000000000606482015260840161057a565b805181602001fd5b6001600160e01b031916630a85bd0160e11b149050611937565b5060015b949350505050565b6000600161194c84610b1a565b6119569190612072565b6000838152600760205260409020549091508082146119a9576001600160a01b03841660009081526006602090815260408083208584528252808320548484528184208190558352600790915290208190555b5060009182526007602090815260408084208490556001600160a01b039094168352600681528383209183525290812055565b6008546000906119ee90600190612072565b60008381526009602052604081205460088054939450909284908110611a1657611a1661214e565b906000526020600020015490508060088381548110611a3757611a3761214e565b6000918252602080832090910192909255828152600990915260408082208490558582528120556008805480611a6f57611a6f612138565b6001900381819060005260206000200160009055905550505050565b6000611a9683610b1a565b6001600160a01b039093166000908152600660209081526040808320868452825280832085905593825260079052919091209190915550565b828054611adb906120cc565b90600052602060002090601f016020900481019282611afd5760008555611b43565b82601f10611b1657805160ff1916838001178555611b43565b82800160010185558215611b43579182015b82811115611b43578251825591602001919060010190611b28565b50611b4f929150611b53565b5090565b5b80821115611b4f5760008155600101611b54565b600067ffffffffffffffff831115611b8257611b82612164565b611b95601f8401601f191660200161200a565b9050828152838383011115611ba957600080fd5b828260208301376000602084830101529392505050565b80356001600160a01b0381168114611bd757600080fd5b919050565b600082601f830112611bed57600080fd5b61149283833560208501611b68565b600060208284031215611c0e57600080fd5b61149282611bc0565b60008060408385031215611c2a57600080fd5b611c3383611bc0565b9150611c4160208401611bc0565b90509250929050565b600080600060608486031215611c5f57600080fd5b611c6884611bc0565b9250611c7660208501611bc0565b9150604084013590509250925092565b60008060008060808587031215611c9c57600080fd5b611ca585611bc0565b9350611cb360208601611bc0565b925060408501359150606085013567ffffffffffffffff811115611cd657600080fd5b8501601f81018713611ce757600080fd5b611cf687823560208401611b68565b91505092959194509250565b60008060408385031215611d1557600080fd5b611d1e83611bc0565b915060208301358015158114611d3357600080fd5b809150509250929050565b60008060408385031215611d5157600080fd5b611d5a83611bc0565b946020939093013593505050565b60006020808385031215611d7b57600080fd5b823567ffffffffffffffff80821115611d9357600080fd5b818501915085601f830112611da757600080fd5b813581811115611db957611db9612164565b8060051b9150611dca84830161200a565b8181528481019084860184860187018a1015611de557600080fd5b600095505b83861015611e0f57611dfb81611bc0565b835260019590950194918601918601611dea565b5098975050505050505050565b600060208284031215611e2e57600080fd5b5035919050565b60008060408385031215611e4857600080fd5b82359150611c4160208401611bc0565b600060208284031215611e6a57600080fd5b81356114928161217a565b600060208284031215611e8757600080fd5b81516114928161217a565b600060208284031215611ea457600080fd5b813567ffffffffffffffff811115611ebb57600080fd5b61193784828501611bdc565b60008060408385031215611eda57600080fd5b82359150602083013567ffffffffffffffff811115611ef857600080fd5b611f0485828601611bdc565b9150509250929050565b60008151808452611f26816020860160208601612089565b601f01601f19169290920160200192915050565b7f416363657373436f6e74726f6c3a206163636f756e7420000000000000000000815260008351611f72816017850160208801612089565b7f206973206d697373696e6720726f6c65200000000000000000000000000000006017918401918201528351611faf816028840160208801612089565b01602801949350505050565b60006001600160a01b03808716835280861660208401525083604083015260806060830152611fed6080830184611f0e565b9695505050505050565b6020815260006114926020830184611f0e565b604051601f8201601f1916810167ffffffffffffffff8111828210171561203357612033612164565b604052919050565b6000821982111561204e5761204e612122565b500190565b600081600019048311821515161561206d5761206d612122565b500290565b60008282101561208457612084612122565b500390565b60005b838110156120a457818101518382015260200161208c565b838111156107865750506000910152565b6000816120c4576120c4612122565b506000190190565b600181811c908216806120e057607f821691505b6020821081141561210157634e487b7160e01b600052602260045260246000fd5b50919050565b600060001982141561211b5761211b612122565b5060010190565b634e487b7160e01b600052601160045260246000fd5b634e487b7160e01b600052603160045260246000fd5b634e487b7160e01b600052603260045260246000fd5b634e487b7160e01b600052604160045260246000fd5b6001600160e01b03198116811461219057600080fd5b5056fea264697066735822122042eff32f5778414eb76c11c379e816bdbb2680c1f5e95b3b4e357c7887f1df3164736f6c63430008070033",
  "linkReferences": {},
  "deployedLinkReferences": {}
}